{
  "contractName": "ClassySwapRouter",
  "abi": [
    {
      "inputs": [
        {
          "internalType": "address",
          "name": "_factory",
          "type": "address"
        },
        {
          "internalType": "address",
          "name": "_WETH",
          "type": "address"
        }
      ],
      "stateMutability": "nonpayable",
      "type": "constructor"
    },
    {
      "inputs": [],
      "name": "WETH",
      "outputs": [
        {
          "internalType": "address",
          "name": "",
          "type": "address"
        }
      ],
      "stateMutability": "view",
      "type": "function",
      "constant": true
    },
    {
      "inputs": [],
      "name": "factory",
      "outputs": [
        {
          "internalType": "address",
          "name": "",
          "type": "address"
        }
      ],
      "stateMutability": "view",
      "type": "function",
      "constant": true
    },
    {
      "stateMutability": "payable",
      "type": "receive",
      "payable": true
    },
    {
      "inputs": [
        {
          "internalType": "address",
          "name": "tokenA",
          "type": "address"
        },
        {
          "internalType": "address",
          "name": "tokenB",
          "type": "address"
        },
        {
          "internalType": "uint256",
          "name": "amountADesired",
          "type": "uint256"
        },
        {
          "internalType": "uint256",
          "name": "amountBDesired",
          "type": "uint256"
        },
        {
          "internalType": "uint256",
          "name": "amountAMin",
          "type": "uint256"
        },
        {
          "internalType": "uint256",
          "name": "amountBMin",
          "type": "uint256"
        },
        {
          "internalType": "address",
          "name": "to",
          "type": "address"
        },
        {
          "internalType": "uint256",
          "name": "deadline",
          "type": "uint256"
        }
      ],
      "name": "addLiquidity",
      "outputs": [
        {
          "internalType": "uint256",
          "name": "amountA",
          "type": "uint256"
        },
        {
          "internalType": "uint256",
          "name": "amountB",
          "type": "uint256"
        },
        {
          "internalType": "uint256",
          "name": "liquidity",
          "type": "uint256"
        }
      ],
      "stateMutability": "nonpayable",
      "type": "function"
    },
    {
      "inputs": [
        {
          "internalType": "address",
          "name": "token",
          "type": "address"
        },
        {
          "internalType": "uint256",
          "name": "amountTokenDesired",
          "type": "uint256"
        },
        {
          "internalType": "uint256",
          "name": "amountTokenMin",
          "type": "uint256"
        },
        {
          "internalType": "uint256",
          "name": "amountETHMin",
          "type": "uint256"
        },
        {
          "internalType": "address",
          "name": "to",
          "type": "address"
        },
        {
          "internalType": "uint256",
          "name": "deadline",
          "type": "uint256"
        }
      ],
      "name": "addLiquidityETH",
      "outputs": [
        {
          "internalType": "uint256",
          "name": "amountToken",
          "type": "uint256"
        },
        {
          "internalType": "uint256",
          "name": "amountETH",
          "type": "uint256"
        },
        {
          "internalType": "uint256",
          "name": "liquidity",
          "type": "uint256"
        }
      ],
      "stateMutability": "payable",
      "type": "function",
      "payable": true
    },
    {
      "inputs": [
        {
          "internalType": "address",
          "name": "tokenA",
          "type": "address"
        },
        {
          "internalType": "address",
          "name": "tokenB",
          "type": "address"
        },
        {
          "internalType": "uint256",
          "name": "liquidity",
          "type": "uint256"
        },
        {
          "internalType": "uint256",
          "name": "amountAMin",
          "type": "uint256"
        },
        {
          "internalType": "uint256",
          "name": "amountBMin",
          "type": "uint256"
        },
        {
          "internalType": "address",
          "name": "to",
          "type": "address"
        },
        {
          "internalType": "uint256",
          "name": "deadline",
          "type": "uint256"
        }
      ],
      "name": "removeLiquidity",
      "outputs": [
        {
          "internalType": "uint256",
          "name": "amountA",
          "type": "uint256"
        },
        {
          "internalType": "uint256",
          "name": "amountB",
          "type": "uint256"
        }
      ],
      "stateMutability": "nonpayable",
      "type": "function"
    },
    {
      "inputs": [
        {
          "internalType": "address",
          "name": "token",
          "type": "address"
        },
        {
          "internalType": "uint256",
          "name": "liquidity",
          "type": "uint256"
        },
        {
          "internalType": "uint256",
          "name": "amountTokenMin",
          "type": "uint256"
        },
        {
          "internalType": "uint256",
          "name": "amountETHMin",
          "type": "uint256"
        },
        {
          "internalType": "address",
          "name": "to",
          "type": "address"
        },
        {
          "internalType": "uint256",
          "name": "deadline",
          "type": "uint256"
        }
      ],
      "name": "removeLiquidityETH",
      "outputs": [
        {
          "internalType": "uint256",
          "name": "amountToken",
          "type": "uint256"
        },
        {
          "internalType": "uint256",
          "name": "amountETH",
          "type": "uint256"
        }
      ],
      "stateMutability": "nonpayable",
      "type": "function"
    },
    {
      "inputs": [
        {
          "internalType": "address",
          "name": "tokenA",
          "type": "address"
        },
        {
          "internalType": "address",
          "name": "tokenB",
          "type": "address"
        },
        {
          "internalType": "uint256",
          "name": "liquidity",
          "type": "uint256"
        },
        {
          "internalType": "uint256",
          "name": "amountAMin",
          "type": "uint256"
        },
        {
          "internalType": "uint256",
          "name": "amountBMin",
          "type": "uint256"
        },
        {
          "internalType": "address",
          "name": "to",
          "type": "address"
        },
        {
          "internalType": "uint256",
          "name": "deadline",
          "type": "uint256"
        },
        {
          "internalType": "bool",
          "name": "approveMax",
          "type": "bool"
        },
        {
          "internalType": "uint8",
          "name": "v",
          "type": "uint8"
        },
        {
          "internalType": "bytes32",
          "name": "r",
          "type": "bytes32"
        },
        {
          "internalType": "bytes32",
          "name": "s",
          "type": "bytes32"
        }
      ],
      "name": "removeLiquidityWithPermit",
      "outputs": [
        {
          "internalType": "uint256",
          "name": "amountA",
          "type": "uint256"
        },
        {
          "internalType": "uint256",
          "name": "amountB",
          "type": "uint256"
        }
      ],
      "stateMutability": "nonpayable",
      "type": "function"
    },
    {
      "inputs": [
        {
          "internalType": "address",
          "name": "token",
          "type": "address"
        },
        {
          "internalType": "uint256",
          "name": "liquidity",
          "type": "uint256"
        },
        {
          "internalType": "uint256",
          "name": "amountTokenMin",
          "type": "uint256"
        },
        {
          "internalType": "uint256",
          "name": "amountETHMin",
          "type": "uint256"
        },
        {
          "internalType": "address",
          "name": "to",
          "type": "address"
        },
        {
          "internalType": "uint256",
          "name": "deadline",
          "type": "uint256"
        },
        {
          "internalType": "bool",
          "name": "approveMax",
          "type": "bool"
        },
        {
          "internalType": "uint8",
          "name": "v",
          "type": "uint8"
        },
        {
          "internalType": "bytes32",
          "name": "r",
          "type": "bytes32"
        },
        {
          "internalType": "bytes32",
          "name": "s",
          "type": "bytes32"
        }
      ],
      "name": "removeLiquidityETHWithPermit",
      "outputs": [
        {
          "internalType": "uint256",
          "name": "amountToken",
          "type": "uint256"
        },
        {
          "internalType": "uint256",
          "name": "amountETH",
          "type": "uint256"
        }
      ],
      "stateMutability": "nonpayable",
      "type": "function"
    },
    {
      "inputs": [
        {
          "internalType": "address",
          "name": "token",
          "type": "address"
        },
        {
          "internalType": "uint256",
          "name": "liquidity",
          "type": "uint256"
        },
        {
          "internalType": "uint256",
          "name": "amountTokenMin",
          "type": "uint256"
        },
        {
          "internalType": "uint256",
          "name": "amountETHMin",
          "type": "uint256"
        },
        {
          "internalType": "address",
          "name": "to",
          "type": "address"
        },
        {
          "internalType": "uint256",
          "name": "deadline",
          "type": "uint256"
        }
      ],
      "name": "removeLiquidityETHSupportingFeeOnTransferTokens",
      "outputs": [
        {
          "internalType": "uint256",
          "name": "amountETH",
          "type": "uint256"
        }
      ],
      "stateMutability": "nonpayable",
      "type": "function"
    },
    {
      "inputs": [
        {
          "internalType": "address",
          "name": "token",
          "type": "address"
        },
        {
          "internalType": "uint256",
          "name": "liquidity",
          "type": "uint256"
        },
        {
          "internalType": "uint256",
          "name": "amountTokenMin",
          "type": "uint256"
        },
        {
          "internalType": "uint256",
          "name": "amountETHMin",
          "type": "uint256"
        },
        {
          "internalType": "address",
          "name": "to",
          "type": "address"
        },
        {
          "internalType": "uint256",
          "name": "deadline",
          "type": "uint256"
        },
        {
          "internalType": "bool",
          "name": "approveMax",
          "type": "bool"
        },
        {
          "internalType": "uint8",
          "name": "v",
          "type": "uint8"
        },
        {
          "internalType": "bytes32",
          "name": "r",
          "type": "bytes32"
        },
        {
          "internalType": "bytes32",
          "name": "s",
          "type": "bytes32"
        }
      ],
      "name": "removeLiquidityETHWithPermitSupportingFeeOnTransferTokens",
      "outputs": [
        {
          "internalType": "uint256",
          "name": "amountETH",
          "type": "uint256"
        }
      ],
      "stateMutability": "nonpayable",
      "type": "function"
    },
    {
      "inputs": [
        {
          "internalType": "uint256",
          "name": "amountIn",
          "type": "uint256"
        },
        {
          "internalType": "uint256",
          "name": "amountOutMin",
          "type": "uint256"
        },
        {
          "internalType": "address[]",
          "name": "path",
          "type": "address[]"
        },
        {
          "internalType": "address",
          "name": "to",
          "type": "address"
        },
        {
          "internalType": "uint256",
          "name": "deadline",
          "type": "uint256"
        }
      ],
      "name": "swapExactTokensForTokens",
      "outputs": [
        {
          "internalType": "uint256[]",
          "name": "amounts",
          "type": "uint256[]"
        }
      ],
      "stateMutability": "nonpayable",
      "type": "function"
    },
    {
      "inputs": [
        {
          "internalType": "uint256",
          "name": "amountOut",
          "type": "uint256"
        },
        {
          "internalType": "uint256",
          "name": "amountInMax",
          "type": "uint256"
        },
        {
          "internalType": "address[]",
          "name": "path",
          "type": "address[]"
        },
        {
          "internalType": "address",
          "name": "to",
          "type": "address"
        },
        {
          "internalType": "uint256",
          "name": "deadline",
          "type": "uint256"
        }
      ],
      "name": "swapTokensForExactTokens",
      "outputs": [
        {
          "internalType": "uint256[]",
          "name": "amounts",
          "type": "uint256[]"
        }
      ],
      "stateMutability": "nonpayable",
      "type": "function"
    },
    {
      "inputs": [
        {
          "internalType": "uint256",
          "name": "amountOutMin",
          "type": "uint256"
        },
        {
          "internalType": "address[]",
          "name": "path",
          "type": "address[]"
        },
        {
          "internalType": "address",
          "name": "to",
          "type": "address"
        },
        {
          "internalType": "uint256",
          "name": "deadline",
          "type": "uint256"
        }
      ],
      "name": "swapExactETHForTokens",
      "outputs": [
        {
          "internalType": "uint256[]",
          "name": "amounts",
          "type": "uint256[]"
        }
      ],
      "stateMutability": "payable",
      "type": "function",
      "payable": true
    },
    {
      "inputs": [
        {
          "internalType": "uint256",
          "name": "amountOut",
          "type": "uint256"
        },
        {
          "internalType": "uint256",
          "name": "amountInMax",
          "type": "uint256"
        },
        {
          "internalType": "address[]",
          "name": "path",
          "type": "address[]"
        },
        {
          "internalType": "address",
          "name": "to",
          "type": "address"
        },
        {
          "internalType": "uint256",
          "name": "deadline",
          "type": "uint256"
        }
      ],
      "name": "swapTokensForExactETH",
      "outputs": [
        {
          "internalType": "uint256[]",
          "name": "amounts",
          "type": "uint256[]"
        }
      ],
      "stateMutability": "nonpayable",
      "type": "function"
    },
    {
      "inputs": [
        {
          "internalType": "uint256",
          "name": "amountIn",
          "type": "uint256"
        },
        {
          "internalType": "uint256",
          "name": "amountOutMin",
          "type": "uint256"
        },
        {
          "internalType": "address[]",
          "name": "path",
          "type": "address[]"
        },
        {
          "internalType": "address",
          "name": "to",
          "type": "address"
        },
        {
          "internalType": "uint256",
          "name": "deadline",
          "type": "uint256"
        }
      ],
      "name": "swapExactTokensForETH",
      "outputs": [
        {
          "internalType": "uint256[]",
          "name": "amounts",
          "type": "uint256[]"
        }
      ],
      "stateMutability": "nonpayable",
      "type": "function"
    },
    {
      "inputs": [
        {
          "internalType": "uint256",
          "name": "amountOut",
          "type": "uint256"
        },
        {
          "internalType": "address[]",
          "name": "path",
          "type": "address[]"
        },
        {
          "internalType": "address",
          "name": "to",
          "type": "address"
        },
        {
          "internalType": "uint256",
          "name": "deadline",
          "type": "uint256"
        }
      ],
      "name": "swapETHForExactTokens",
      "outputs": [
        {
          "internalType": "uint256[]",
          "name": "amounts",
          "type": "uint256[]"
        }
      ],
      "stateMutability": "payable",
      "type": "function",
      "payable": true
    },
    {
      "inputs": [
        {
          "internalType": "uint256",
          "name": "amountA",
          "type": "uint256"
        },
        {
          "internalType": "uint256",
          "name": "reserveA",
          "type": "uint256"
        },
        {
          "internalType": "uint256",
          "name": "reserveB",
          "type": "uint256"
        }
      ],
      "name": "quote",
      "outputs": [
        {
          "internalType": "uint256",
          "name": "amountB",
          "type": "uint256"
        }
      ],
      "stateMutability": "pure",
      "type": "function",
      "constant": true
    },
    {
      "inputs": [
        {
          "internalType": "uint256",
          "name": "amountIn",
          "type": "uint256"
        },
        {
          "internalType": "uint256",
          "name": "reserveIn",
          "type": "uint256"
        },
        {
          "internalType": "uint256",
          "name": "reserveOut",
          "type": "uint256"
        }
      ],
      "name": "getAmountOut",
      "outputs": [
        {
          "internalType": "uint256",
          "name": "amountOut",
          "type": "uint256"
        }
      ],
      "stateMutability": "pure",
      "type": "function",
      "constant": true
    },
    {
      "inputs": [
        {
          "internalType": "uint256",
          "name": "amountOut",
          "type": "uint256"
        },
        {
          "internalType": "uint256",
          "name": "reserveIn",
          "type": "uint256"
        },
        {
          "internalType": "uint256",
          "name": "reserveOut",
          "type": "uint256"
        }
      ],
      "name": "getAmountIn",
      "outputs": [
        {
          "internalType": "uint256",
          "name": "amountIn",
          "type": "uint256"
        }
      ],
      "stateMutability": "pure",
      "type": "function",
      "constant": true
    },
    {
      "inputs": [
        {
          "internalType": "uint256",
          "name": "amountIn",
          "type": "uint256"
        },
        {
          "internalType": "address[]",
          "name": "path",
          "type": "address[]"
        }
      ],
      "name": "getAmountsOut",
      "outputs": [
        {
          "internalType": "uint256[]",
          "name": "amounts",
          "type": "uint256[]"
        }
      ],
      "stateMutability": "view",
      "type": "function",
      "constant": true
    },
    {
      "inputs": [
        {
          "internalType": "uint256",
          "name": "amountOut",
          "type": "uint256"
        },
        {
          "internalType": "address[]",
          "name": "path",
          "type": "address[]"
        }
      ],
      "name": "getAmountsIn",
      "outputs": [
        {
          "internalType": "uint256[]",
          "name": "amounts",
          "type": "uint256[]"
        }
      ],
      "stateMutability": "view",
      "type": "function",
      "constant": true
    }
  ],
  "bytecode": "0x60c060405234801561001057600080fd5b50604051613c4b380380613c4b8339818101604052604081101561003357600080fd5b5080516020909101516c01000000000000000000000000600160a060020a03928316810260805291160260a0526080516c01000000000000000000000000900460a0516c010000000000000000000000009004613ad6610175600039806101425280610b2a5280610b655280610c625280610e86528061123552806113a152806114e9528061163552806116c0528061192b52806119a95280611a715280611df6528061208b52806120e15280612115528061218c5280612335528061247e5280612509525080610cf35280610dcd5280610f4f5280610f8852806110df52806112c6528061137f528061157f52806116f252806118785280611b4b5280611d7b5280611da45280611dd45280611f5d52806120bf52806123cb528061253b5280612e5b5280612e9e528061340652806134cd528061354d5250613ad66000f3fe6080604052600436106101325760003560e060020a900480638803dbee116100af578063c45a015511610073578063c45a01551461084f578063d06ca61f14610864578063ded9382a1461091b578063e8e337001461098e578063f305d71914610a0e578063fb3bdb4114610a545761016b565b80638803dbee146106a0578063ad5c464814610738578063ad615dec14610769578063af2979eb1461079f578063baa2abde146107f25761016b565b806338ed1739116100f657806338ed1739146104415780634a25d94a146104d95780635b0d5984146105715780637ff36ab5146105e457806385f8c2591461066a5761016b565b806302751cec14610170578063054d50d4146101dc57806318cbafe5146102245780631f00ca741461030c5780632195995c146103c35761016b565b3661016b5733600160a060020a037f0000000000000000000000000000000000000000000000000000000000000000161461016957fe5b005b600080fd5b34801561017c57600080fd5b506101c3600480360360c081101561019357600080fd5b50600160a060020a0381358116916020810135916040820135916060810135916080820135169060a00135610ada565b6040805192835260208301919091528051918290030190f35b3480156101e857600080fd5b50610212600480360360608110156101ff57600080fd5b5080359060208101359060400135610bfa565b60408051918252519081900360200190f35b34801561023057600080fd5b506102bc600480360360a081101561024757600080fd5b81359160208101359181019060608101604082013564010000000081111561026e57600080fd5b82018360208201111561028057600080fd5b803590602001918460208302840111640100000000831117156102a257600080fd5b9193509150600160a060020a038135169060200135610c0f565b60408051602080825283518183015283519192839290830191858101910280838360005b838110156102f85781810151838201526020016102e0565b505050509050019250505060405180910390f35b34801561031857600080fd5b506102bc6004803603604081101561032f57600080fd5b8135919081019060408101602082013564010000000081111561035157600080fd5b82018360208201111561036357600080fd5b8035906020019184602083028401116401000000008311171561038557600080fd5b919080806020026020016040519081016040528093929190818152602001838360200280828437600092019190915250929550610f48945050505050565b3480156103cf57600080fd5b506101c360048036036101608110156103e757600080fd5b50600160a060020a038135811691602081013582169160408201359160608101359160808201359160a08101359091169060c08101359060e081013515159060ff6101008201351690610120810135906101400135610f7e565b34801561044d57600080fd5b506102bc600480360360a081101561046457600080fd5b81359160208101359181019060608101604082013564010000000081111561048b57600080fd5b82018360208201111561049d57600080fd5b803590602001918460208302840111640100000000831117156104bf57600080fd5b9193509150600160a060020a038135169060200135611091565b3480156104e557600080fd5b506102bc600480360360a08110156104fc57600080fd5b81359160208101359181019060608101604082013564010000000081111561052357600080fd5b82018360208201111561053557600080fd5b8035906020019184602083028401116401000000008311171561055757600080fd5b9193509150600160a060020a0381351690602001356111e2565b34801561057d57600080fd5b50610212600480360361014081101561059557600080fd5b50600160a060020a0381358116916020810135916040820135916060810135916080820135169060a08101359060c081013515159060ff60e08201351690610100810135906101200135611377565b6102bc600480360360808110156105fa57600080fd5b8135919081019060408101602082013564010000000081111561061c57600080fd5b82018360208201111561062e57600080fd5b8035906020019184602083028401116401000000008311171561065057600080fd5b9193509150600160a060020a03813516906020013561149e565b34801561067657600080fd5b506102126004803603606081101561068d57600080fd5b508035906020810135906040013561181d565b3480156106ac57600080fd5b506102bc600480360360a08110156106c357600080fd5b8135916020810135918101906060810160408201356401000000008111156106ea57600080fd5b8201836020820111156106fc57600080fd5b8035906020019184602083028401116401000000008311171561071e57600080fd5b9193509150600160a060020a03813516906020013561182a565b34801561074457600080fd5b5061074d611929565b60408051600160a060020a039092168252519081900360200190f35b34801561077557600080fd5b506102126004803603606081101561078c57600080fd5b508035906020810135906040013561194d565b3480156107ab57600080fd5b50610212600480360360c08110156107c257600080fd5b50600160a060020a0381358116916020810135916040820135916060810135916080820135169060a0013561195a565b3480156107fe57600080fd5b506101c3600480360360e081101561081557600080fd5b50600160a060020a038135811691602081013582169160408201359160608101359160808201359160a08101359091169060c00135611afa565b34801561085b57600080fd5b5061074d611d79565b34801561087057600080fd5b506102bc6004803603604081101561088757600080fd5b813591908101906040810160208201356401000000008111156108a957600080fd5b8201836020820111156108bb57600080fd5b803590602001918460208302840111640100000000831117156108dd57600080fd5b919080806020026020016040519081016040528093929190818152602001838360200280828437600092019190915250929550611d9d945050505050565b34801561092757600080fd5b506101c3600480360361014081101561093f57600080fd5b50600160a060020a0381358116916020810135916040820135916060810135916080820135169060a08101359060c081013515159060ff60e08201351690610100810135906101200135611dca565b34801561099a57600080fd5b506109f060048036036101008110156109b257600080fd5b50600160a060020a038135811691602081013582169160408201359160608101359160808201359160a08101359160c0820135169060e00135611ef7565b60408051938452602084019290925282820152519081900360600190f35b6109f0600480360360c0811015610a2457600080fd5b50600160a060020a0381358116916020810135916040820135916060810135916080820135169060a00135612039565b6102bc60048036036080811015610a6a57600080fd5b81359190810190604081016020820135640100000000811115610a8c57600080fd5b820183602082011115610a9e57600080fd5b80359060200191846020830284011164010000000083111715610ac057600080fd5b9193509150600160a060020a0381351690602001356122ea565b6000808242811015610b24576040805160e560020a62461bcd0281526020600482015260196024820152600080516020613991833981519152604482015290519081900360640190fd5b610b53897f00000000000000000000000000000000000000000000000000000000000000008a8a8a308a611afa565b9093509150610b6389868561267b565b7f0000000000000000000000000000000000000000000000000000000000000000600160a060020a0316632e1a7d4d836040518263ffffffff1660e060020a02815260040180828152602001915050600060405180830381600087803b158015610bcc57600080fd5b505af1158015610be0573d6000803e3d6000fd5b50505050610bee8583612800565b50965096945050505050565b6000610c078484846128fb565b949350505050565b60608142811015610c58576040805160e560020a62461bcd0281526020600482015260196024820152600080516020613991833981519152604482015290519081900360640190fd5b600160a060020a037f00000000000000000000000000000000000000000000000000000000000000001686866000198101818110610c9257fe5b90506020020135600160a060020a0316600160a060020a031614610cee576040805160e560020a62461bcd02815260206004820152601e6024820152600080516020613a81833981519152604482015290519081900360640190fd5b610d4c7f0000000000000000000000000000000000000000000000000000000000000000898888808060200260200160405190810160405280939291908181526020018383602002808284376000920191909152506129f192505050565b91508682600184510381518110610d5f57fe5b60200260200101511015610da75760405160e560020a62461bcd02815260040180806020018281038252602c8152602001806139b1602c913960400191505060405180910390fd5b610e4586866000818110610db757fe5b90506020020135600160a060020a031633610e2b7f00000000000000000000000000000000000000000000000000000000000000008a8a6000818110610df957fe5b90506020020135600160a060020a03168b8b6001818110610e1657fe5b90506020020135600160a060020a0316612b40565b85600081518110610e3857fe5b6020026020010151612c1e565b610e8482878780806020026020016040519081016040528093929190818152602001838360200280828437600092019190915250309250612dac915050565b7f0000000000000000000000000000000000000000000000000000000000000000600160a060020a0316632e1a7d4d83600185510381518110610ec357fe5b60200260200101516040518263ffffffff1660e060020a02815260040180828152602001915050600060405180830381600087803b158015610f0457600080fd5b505af1158015610f18573d6000803e3d6000fd5b50505050610f3d8483600185510381518110610f3057fe5b6020026020010151612800565b509695505050505050565b6060610f757f00000000000000000000000000000000000000000000000000000000000000008484612ff5565b90505b92915050565b6000806000610fae7f00000000000000000000000000000000000000000000000000000000000000008f8f612b40565b9050600087610fbd578c610fc1565b6000195b604080517fd505accf00000000000000000000000000000000000000000000000000000000815233600482015230602482015260448101839052606481018c905260ff8a16608482015260a4810189905260c481018890529051919250600160a060020a0384169163d505accf9160e48082019260009290919082900301818387803b15801561105057600080fd5b505af1158015611064573d6000803e3d6000fd5b505050506110778f8f8f8f8f8f8f611afa565b809450819550505050509b509b9950505050505050505050565b606081428110156110da576040805160e560020a62461bcd0281526020600482015260196024820152600080516020613991833981519152604482015290519081900360640190fd5b6111387f0000000000000000000000000000000000000000000000000000000000000000898888808060200260200160405190810160405280939291908181526020018383602002808284376000920191909152506129f192505050565b9150868260018451038151811061114b57fe5b602002602001015110156111935760405160e560020a62461bcd02815260040180806020018281038252602c8152602001806139b1602c913960400191505060405180910390fd5b6111a386866000818110610db757fe5b610f3d82878780806020026020016040519081016040528093929190818152602001838360200280828437600092019190915250899250612dac915050565b6060814281101561122b576040805160e560020a62461bcd0281526020600482015260196024820152600080516020613991833981519152604482015290519081900360640190fd5b600160a060020a037f0000000000000000000000000000000000000000000000000000000000000000168686600019810181811061126557fe5b90506020020135600160a060020a0316600160a060020a0316146112c1576040805160e560020a62461bcd02815260206004820152601e6024820152600080516020613a81833981519152604482015290519081900360640190fd5b61131f7f000000000000000000000000000000000000000000000000000000000000000089888880806020026020016040519081016040528093929190818152602001838360200280828437600092019190915250612ff592505050565b9150868260008151811061132f57fe5b60200260200101511115610da75760405160e560020a62461bcd028152600401808060200182810382526028815260200180613a066028913960400191505060405180910390fd5b6000806113c57f00000000000000000000000000000000000000000000000000000000000000008d7f0000000000000000000000000000000000000000000000000000000000000000612b40565b90506000866113d4578b6113d8565b6000195b604080517fd505accf00000000000000000000000000000000000000000000000000000000815233600482015230602482015260448101839052606481018b905260ff8916608482015260a4810188905260c481018790529051919250600160a060020a0384169163d505accf9160e48082019260009290919082900301818387803b15801561146757600080fd5b505af115801561147b573d6000803e3d6000fd5b5050505061148d8d8d8d8d8d8d61195a565b9d9c50505050505050505050505050565b606081428110156114e7576040805160e560020a62461bcd0281526020600482015260196024820152600080516020613991833981519152604482015290519081900360640190fd5b7f0000000000000000000000000000000000000000000000000000000000000000600160a060020a03168686600081811061151e57fe5b90506020020135600160a060020a0316600160a060020a03161461157a576040805160e560020a62461bcd02815260206004820152601e6024820152600080516020613a81833981519152604482015290519081900360640190fd5b6115d87f0000000000000000000000000000000000000000000000000000000000000000348888808060200260200160405190810160405280939291908181526020018383602002808284376000920191909152506129f192505050565b915086826001845103815181106115eb57fe5b602002602001015110156116335760405160e560020a62461bcd02815260040180806020018281038252602c8152602001806139b1602c913960400191505060405180910390fd5b7f0000000000000000000000000000000000000000000000000000000000000000600160a060020a031663d0e30db08360008151811061166f57fe5b60200260200101516040518263ffffffff1660e060020a0281526004016000604051808303818588803b1580156116a557600080fd5b505af11580156116b9573d6000803e3d6000fd5b50505050507f0000000000000000000000000000000000000000000000000000000000000000600160a060020a031663a9059cbb61173b7f00000000000000000000000000000000000000000000000000000000000000008989600081811061171e57fe5b90506020020135600160a060020a03168a8a6001818110610e1657fe5b8460008151811061174857fe5b60200260200101516040518363ffffffff1660e060020a0281526004018083600160a060020a0316600160a060020a0316815260200182815260200192505050602060405180830381600087803b1580156117a257600080fd5b505af11580156117b6573d6000803e3d6000fd5b505050506040513d60208110156117cc57600080fd5b50516117d457fe5b61181382878780806020026020016040519081016040528093929190818152602001838360200280828437600092019190915250899250612dac915050565b5095945050505050565b6000610c07848484613130565b60608142811015611873576040805160e560020a62461bcd0281526020600482015260196024820152600080516020613991833981519152604482015290519081900360640190fd5b6118d17f000000000000000000000000000000000000000000000000000000000000000089888880806020026020016040519081016040528093929190818152602001838360200280828437600092019190915250612ff592505050565b915086826000815181106118e157fe5b602002602001015111156111935760405160e560020a62461bcd028152600401808060200182810382526028815260200180613a066028913960400191505060405180910390fd5b7f000000000000000000000000000000000000000000000000000000000000000081565b6000610c07848484613226565b600081428110156119a3576040805160e560020a62461bcd0281526020600482015260196024820152600080516020613991833981519152604482015290519081900360640190fd5b6119d2887f00000000000000000000000000000000000000000000000000000000000000008989893089611afa565b604080517f70a082310000000000000000000000000000000000000000000000000000000081523060048201529051919450611a6f92508a918791600160a060020a038416916370a0823191602480820192602092909190829003018186803b158015611a3e57600080fd5b505afa158015611a52573d6000803e3d6000fd5b505050506040513d6020811015611a6857600080fd5b505161267b565b7f0000000000000000000000000000000000000000000000000000000000000000600160a060020a0316632e1a7d4d836040518263ffffffff1660e060020a02815260040180828152602001915050600060405180830381600087803b158015611ad857600080fd5b505af1158015611aec573d6000803e3d6000fd5b50505050610f3d8483612800565b6000808242811015611b44576040805160e560020a62461bcd0281526020600482015260196024820152600080516020613991833981519152604482015290519081900360640190fd5b6000611b717f00000000000000000000000000000000000000000000000000000000000000008c8c612b40565b604080517f23b872dd000000000000000000000000000000000000000000000000000000008152336004820152600160a060020a03831660248201819052604482018d9052915192935090916323b872dd916064808201926020929091908290030181600087803b158015611be557600080fd5b505af1158015611bf9573d6000803e3d6000fd5b505050506040513d6020811015611c0f57600080fd5b5050604080517f89afcb44000000000000000000000000000000000000000000000000000000008152600160a060020a03888116600483015282516000938493928616926389afcb44926024808301939282900301818787803b158015611c7557600080fd5b505af1158015611c89573d6000803e3d6000fd5b505050506040513d6040811015611c9f57600080fd5b50805160209091015190925090506000611cb98e8e6132d8565b50905080600160a060020a03168e600160a060020a031614611cdc578183611cdf565b82825b90975095508a871015611d265760405160e560020a62461bcd02815260040180806020018281038252602781526020018061396a6027913960400191505060405180910390fd5b89861015611d685760405160e560020a62461bcd02815260040180806020018281038252602781526020018061391d6027913960400191505060405180910390fd5b505050505097509795505050505050565b7f000000000000000000000000000000000000000000000000000000000000000081565b6060610f757f000000000000000000000000000000000000000000000000000000000000000084846129f1565b6000806000611e1a7f00000000000000000000000000000000000000000000000000000000000000008e7f0000000000000000000000000000000000000000000000000000000000000000612b40565b9050600087611e29578c611e2d565b6000195b604080517fd505accf00000000000000000000000000000000000000000000000000000000815233600482015230602482015260448101839052606481018c905260ff8a16608482015260a4810189905260c481018890529051919250600160a060020a0384169163d505accf9160e48082019260009290919082900301818387803b158015611ebc57600080fd5b505af1158015611ed0573d6000803e3d6000fd5b50505050611ee28e8e8e8e8e8e610ada565b909f909e509c50505050505050505050505050565b60008060008342811015611f43576040805160e560020a62461bcd0281526020600482015260196024820152600080516020613991833981519152604482015290519081900360640190fd5b611f518c8c8c8c8c8c6133bc565b90945092506000611f837f00000000000000000000000000000000000000000000000000000000000000008e8e612b40565b9050611f918d338388612c1e565b611f9d8c338387612c1e565b80600160a060020a0316636a627842886040518263ffffffff1660e060020a0281526004018082600160a060020a0316600160a060020a03168152602001915050602060405180830381600087803b158015611ff857600080fd5b505af115801561200c573d6000803e3d6000fd5b505050506040513d602081101561202257600080fd5b5051949d939c50939a509198505050505050505050565b60008060008342811015612085576040805160e560020a62461bcd0281526020600482015260196024820152600080516020613991833981519152604482015290519081900360640190fd5b6120b38a7f00000000000000000000000000000000000000000000000000000000000000008b348c8c6133bc565b909450925060006121057f00000000000000000000000000000000000000000000000000000000000000008c7f0000000000000000000000000000000000000000000000000000000000000000612b40565b90506121138b338388612c1e565b7f0000000000000000000000000000000000000000000000000000000000000000600160a060020a031663d0e30db0856040518263ffffffff1660e060020a0281526004016000604051808303818588803b15801561217157600080fd5b505af1158015612185573d6000803e3d6000fd5b50505050507f0000000000000000000000000000000000000000000000000000000000000000600160a060020a031663a9059cbb82866040518363ffffffff1660e060020a0281526004018083600160a060020a0316600160a060020a0316815260200182815260200192505050602060405180830381600087803b15801561220d57600080fd5b505af1158015612221573d6000803e3d6000fd5b505050506040513d602081101561223757600080fd5b505161223f57fe5b80600160a060020a0316636a627842886040518263ffffffff1660e060020a0281526004018082600160a060020a0316600160a060020a03168152602001915050602060405180830381600087803b15801561229a57600080fd5b505af11580156122ae573d6000803e3d6000fd5b505050506040513d60208110156122c457600080fd5b50519250348410156122dc576122dc33853403612800565b505096509650969350505050565b60608142811015612333576040805160e560020a62461bcd0281526020600482015260196024820152600080516020613991833981519152604482015290519081900360640190fd5b7f0000000000000000000000000000000000000000000000000000000000000000600160a060020a03168686600081811061236a57fe5b90506020020135600160a060020a0316600160a060020a0316146123c6576040805160e560020a62461bcd02815260206004820152601e6024820152600080516020613a81833981519152604482015290519081900360640190fd5b6124247f000000000000000000000000000000000000000000000000000000000000000088888880806020026020016040519081016040528093929190818152602001838360200280828437600092019190915250612ff592505050565b9150348260008151811061243457fe5b6020026020010151111561247c5760405160e560020a62461bcd028152600401808060200182810382526028815260200180613a066028913960400191505060405180910390fd5b7f0000000000000000000000000000000000000000000000000000000000000000600160a060020a031663d0e30db0836000815181106124b857fe5b60200260200101516040518263ffffffff1660e060020a0281526004016000604051808303818588803b1580156124ee57600080fd5b505af1158015612502573d6000803e3d6000fd5b50505050507f0000000000000000000000000000000000000000000000000000000000000000600160a060020a031663a9059cbb6125677f00000000000000000000000000000000000000000000000000000000000000008989600081811061171e57fe5b8460008151811061257457fe5b60200260200101516040518363ffffffff1660e060020a0281526004018083600160a060020a0316600160a060020a0316815260200182815260200192505050602060405180830381600087803b1580156125ce57600080fd5b505af11580156125e2573d6000803e3d6000fd5b505050506040513d60208110156125f857600080fd5b505161260057fe5b61263f82878780806020026020016040519081016040528093929190818152602001838360200280828437600092019190915250899250612dac915050565b8160008151811061264c57fe5b602002602001015134111561181357611813338360008151811061266c57fe5b60200260200101513403612800565b60408051600160a060020a038481166024830152604480830185905283518084039091018152606490920183526020820180517bffffffffffffffffffffffffffffffffffffffffffffffffffffffff167fa9059cbb00000000000000000000000000000000000000000000000000000000178152925182516000946060949389169392918291908083835b602083106127265780518252601f199092019160209182019101612707565b6001836020036101000a0380198251168184511680821785525050505050509050019150506000604051808303816000865af19150503d8060008114612788576040519150601f19603f3d011682016040523d82523d6000602084013e61278d565b606091505b50915091508180156127bb5750805115806127bb57508080602001905160208110156127b857600080fd5b50515b6127f95760405160e560020a62461bcd02815260040180806020018281038252602d815260200180613a2e602d913960400191505060405180910390fd5b5050505050565b60408051600080825260208201909252600160a060020a0384169083906040518082805190602001908083835b6020831061284c5780518252601f19909201916020918201910161282d565b6001836020036101000a03801982511681845116808217855250505050505090500191505060006040518083038185875af1925050503d80600081146128ae576040519150601f19603f3d011682016040523d82523d6000602084013e6128b3565b606091505b50509050806128f65760405160e560020a62461bcd0281526004018080602001828103825260348152602001806138bd6034913960400191505060405180910390fd5b505050565b600080841161293e5760405160e560020a62461bcd02815260040180806020018281038252602c8152602001806138f1602c913960400191505060405180910390fd5b60008311801561294e5750600082115b61298c5760405160e560020a62461bcd0281526004018080602001828103825260298152602001806139dd6029913960400191505060405180910390fd5b60006129a0856103e563ffffffff61366816565b905060006129b4828563ffffffff61366816565b905060006129da836129ce886103e863ffffffff61366816565b9063ffffffff6136d716565b90508082816129e557fe5b04979650505050505050565b6060600282511015612a4d576040805160e560020a62461bcd02815260206004820152601f60248201527f436c61737379537761704c6962726172793a20494e56414c49445f5041544800604482015290519081900360640190fd5b815167ffffffffffffffff81118015612a6557600080fd5b50604051908082528060200260200182016040528015612a8f578160200160208202803683370190505b5090508281600081518110612aa057fe5b60200260200101818152505060005b6001835103811015612b3857600080612af287868581518110612ace57fe5b6020026020010151878660010181518110612ae557fe5b6020026020010151613732565b91509150612b14848481518110612b0557fe5b602002602001015183836128fb565b848460010181518110612b2357fe5b60209081029190910101525050600101612aaf565b509392505050565b6000806000612b4f85856132d8565b604080516c01000000000000000000000000600160a060020a03948516810260208084019190915293851681026034830152825160288184030181526048830184528051908501207fff00000000000000000000000000000000000000000000000000000000000000606884015294909a1690990260698a0152607d8901929092527fc0aa6bea11204c97a76e84a0b3c556904bb02888e8bba38a660cce336952f63c609d808a01919091528251808a03909101815260bd909801909152865196019590952095945050505050565b60408051600160a060020a0385811660248301528481166044830152606480830185905283518084039091018152608490920183526020820180517bffffffffffffffffffffffffffffffffffffffffffffffffffffffff167f23b872dd0000000000000000000000000000000000000000000000000000000017815292518251600094606094938a169392918291908083835b60208310612cd15780518252601f199092019160209182019101612cb2565b6001836020036101000a0380198251168184511680821785525050505050509050019150506000604051808303816000865af19150503d8060008114612d33576040519150601f19603f3d011682016040523d82523d6000602084013e612d38565b606091505b5091509150818015612d66575080511580612d665750808060200190516020811015612d6357600080fd5b50515b612da45760405160e560020a62461bcd02815260040180806020018281038252603181526020018061388c6031913960400191505060405180910390fd5b505050505050565b60005b6001835103811015612fef57600080848381518110612dca57fe5b6020026020010151858460010181518110612de157fe5b6020026020010151915091506000612df983836132d8565b5090506000878560010181518110612e0d57fe5b6020026020010151905060008083600160a060020a031686600160a060020a031614612e3b57826000612e3f565b6000835b91509150600060028a51038810612e565788612e97565b612e977f0000000000000000000000000000000000000000000000000000000000000000878c8b60020181518110612e8a57fe5b6020026020010151612b40565b9050612ec47f00000000000000000000000000000000000000000000000000000000000000008888612b40565b600160a060020a031663022c0d9f84848460006040519080825280601f01601f191660200182016040528015612f01576020820181803683370190505b506040518563ffffffff1660e060020a0281526004018085815260200184815260200183600160a060020a0316600160a060020a0316815260200180602001828103825283818151815260200191508051906020019080838360005b83811015612f75578181015183820152602001612f5d565b50505050905090810190601f168015612fa25780820380516001836020036101000a031916815260200191505b5095505050505050600060405180830381600087803b158015612fc457600080fd5b505af1158015612fd8573d6000803e3d6000fd5b505060019099019850612daf975050505050505050565b50505050565b6060600282511015613051576040805160e560020a62461bcd02815260206004820152601f60248201527f436c61737379537761704c6962726172793a20494e56414c49445f5041544800604482015290519081900360640190fd5b815167ffffffffffffffff8111801561306957600080fd5b50604051908082528060200260200182016040528015613093578160200160208202803683370190505b50905082816001835103815181106130a757fe5b60209081029190910101528151600019015b8015612b38576000806130e9878660018603815181106130d557fe5b6020026020010151878681518110612ae557fe5b9150915061310b8484815181106130fc57fe5b60200260200101518383613130565b84600185038151811061311a57fe5b60209081029190910101525050600019016130b9565b60008084116131735760405160e560020a62461bcd02815260040180806020018281038252602d81526020018061385f602d913960400191505060405180910390fd5b6000831180156131835750600082115b6131c15760405160e560020a62461bcd0281526004018080602001828103825260298152602001806139dd6029913960400191505060405180910390fd5b60006131e56103e86131d9868863ffffffff61366816565b9063ffffffff61366816565b905060006131ff6103e56131d9868963ffffffff61380316565b905061321c600182848161320f57fe5b049063ffffffff6136d716565b9695505050505050565b60008084116132695760405160e560020a62461bcd0281526004018080602001828103825260268152602001806139446026913960400191505060405180910390fd5b6000831180156132795750600082115b6132b75760405160e560020a62461bcd0281526004018080602001828103825260298152602001806139dd6029913960400191505060405180910390fd5b826132c8858463ffffffff61366816565b816132cf57fe5b04949350505050565b60008082600160a060020a031684600160a060020a0316141561332f5760405160e560020a62461bcd028152600401808060200182810382526026815260200180613a5b6026913960400191505060405180910390fd5b82600160a060020a031684600160a060020a03161061334f578284613352565b83835b9092509050600160a060020a0382166133b5576040805160e560020a62461bcd02815260206004820152601f60248201527f436c61737379537761704c6962726172793a205a45524f5f4144445245535300604482015290519081900360640190fd5b9250929050565b604080517fe6a43905000000000000000000000000000000000000000000000000000000008152600160a060020a03888116600483015287811660248301529151600092839283927f00000000000000000000000000000000000000000000000000000000000000009092169163e6a4390591604480820192602092909190829003018186803b15801561344f57600080fd5b505afa158015613463573d6000803e3d6000fd5b505050506040513d602081101561347957600080fd5b5051600160a060020a0316141561354557604080517fc9c65396000000000000000000000000000000000000000000000000000000008152600160a060020a038a81166004830152898116602483015291517f00000000000000000000000000000000000000000000000000000000000000009092169163c9c65396916044808201926020929091908290030181600087803b15801561351857600080fd5b505af115801561352c573d6000803e3d6000fd5b505050506040513d602081101561354257600080fd5b50505b6000806135737f00000000000000000000000000000000000000000000000000000000000000008b8b613732565b91509150816000148015613585575080155b156135955787935086925061365b565b60006135a2898484613226565b90508781116135f857858110156135ed5760405160e560020a62461bcd02815260040180806020018281038252602781526020018061391d6027913960400191505060405180910390fd5b889450925082613659565b6000613605898486613226565b90508981111561361157fe5b878110156136535760405160e560020a62461bcd02815260040180806020018281038252602781526020018061396a6027913960400191505060405180910390fd5b94508793505b505b5050965096945050505050565b60008115806136835750508082028282828161368057fe5b04145b610f78576040805160e560020a62461bcd02815260206004820152601460248201527f64732d6d6174682d6d756c2d6f766572666c6f77000000000000000000000000604482015290519081900360640190fd5b80820182811015610f78576040805160e560020a62461bcd02815260206004820152601460248201527f64732d6d6174682d6164642d6f766572666c6f77000000000000000000000000604482015290519081900360640190fd5b600080600061374185856132d8565b509050600080613752888888612b40565b600160a060020a0316630902f1ac6040518163ffffffff1660e060020a02815260040160606040518083038186803b15801561378d57600080fd5b505afa1580156137a1573d6000803e3d6000fd5b505050506040513d60608110156137b757600080fd5b5080516020909101516dffffffffffffffffffffffffffff9182169350169050600160a060020a03878116908416146137f15780826137f4565b81815b90999098509650505050505050565b80820382811115610f78576040805160e560020a62461bcd02815260206004820152601560248201527f64732d6d6174682d7375622d756e646572666c6f770000000000000000000000604482015290519081900360640190fdfe436c61737379537761704c6962726172793a20494e53554646494349454e545f4f55545055545f414d4f554e545472616e7366657248656c7065723a3a7472616e7366657246726f6d3a207472616e7366657246726f6d206661696c65645472616e7366657248656c7065723a3a736166655472616e736665724554483a20455448207472616e73666572206661696c6564436c61737379537761704c6962726172793a20494e53554646494349454e545f494e5055545f414d4f554e54436c6173737953776170526f757465723a20494e53554646494349454e545f425f414d4f554e54436c61737379537761704c6962726172793a20494e53554646494349454e545f414d4f554e54436c6173737953776170526f757465723a20494e53554646494349454e545f415f414d4f554e54436c6173737953776170526f757465723a204558504952454400000000000000436c6173737953776170526f757465723a20494e53554646494349454e545f4f55545055545f414d4f554e54436c61737379537761704c6962726172793a20494e53554646494349454e545f4c4951554944495459436c6173737953776170526f757465723a204558434553534956455f494e5055545f414d4f554e545472616e7366657248656c7065723a3a736166655472616e736665723a207472616e73666572206661696c6564436c61737379537761704c6962726172793a204944454e544943414c5f414444524553534553436c6173737953776170526f757465723a20494e56414c49445f504154480000a264697066735822122022d3943887b263f4130e7a7603669db2cdd22ef098ae180b82743324b113d65064736f6c63430006060033",
  "immutableReferences": {
    "321": [
      {
        "length": 32,
        "start": 3315
      },
      {
        "length": 32,
        "start": 3533
      },
      {
        "length": 32,
        "start": 3919
      },
      {
        "length": 32,
        "start": 3976
      },
      {
        "length": 32,
        "start": 4319
      },
      {
        "length": 32,
        "start": 4806
      },
      {
        "length": 32,
        "start": 4991
      },
      {
        "length": 32,
        "start": 5503
      },
      {
        "length": 32,
        "start": 5874
      },
      {
        "length": 32,
        "start": 6264
      },
      {
        "length": 32,
        "start": 6987
      },
      {
        "length": 32,
        "start": 7547
      },
      {
        "length": 32,
        "start": 7588
      },
      {
        "length": 32,
        "start": 7636
      },
      {
        "length": 32,
        "start": 8029
      },
      {
        "length": 32,
        "start": 8383
      },
      {
        "length": 32,
        "start": 9163
      },
      {
        "length": 32,
        "start": 9531
      },
      {
        "length": 32,
        "start": 11867
      },
      {
        "length": 32,
        "start": 11934
      },
      {
        "length": 32,
        "start": 13318
      },
      {
        "length": 32,
        "start": 13517
      },
      {
        "length": 32,
        "start": 13645
      }
    ],
    "324": [
      {
        "length": 32,
        "start": 322
      },
      {
        "length": 32,
        "start": 2858
      },
      {
        "length": 32,
        "start": 2917
      },
      {
        "length": 32,
        "start": 3170
      },
      {
        "length": 32,
        "start": 3718
      },
      {
        "length": 32,
        "start": 4661
      },
      {
        "length": 32,
        "start": 5025
      },
      {
        "length": 32,
        "start": 5353
      },
      {
        "length": 32,
        "start": 5685
      },
      {
        "length": 32,
        "start": 5824
      },
      {
        "length": 32,
        "start": 6443
      },
      {
        "length": 32,
        "start": 6569
      },
      {
        "length": 32,
        "start": 6769
      },
      {
        "length": 32,
        "start": 7670
      },
      {
        "length": 32,
        "start": 8331
      },
      {
        "length": 32,
        "start": 8417
      },
      {
        "length": 32,
        "start": 8469
      },
      {
        "length": 32,
        "start": 8588
      },
      {
        "length": 32,
        "start": 9013
      },
      {
        "length": 32,
        "start": 9342
      },
      {
        "length": 32,
        "start": 9481
      }
    ]
  },
  "source": "pragma solidity =0.6.6;\r\n\r\nimport \"../../classy-core/contracts/interfaces/IClassySwapFactory.sol\";\r\n\r\nimport \"./libraries/TransferHelper.sol\";\r\nimport \"./interfaces/IClassySwapRouter.sol\";\r\nimport \"./libraries/ClassySwapLibrary.sol\";\r\nimport \"./libraries/SafeMath.sol\";\r\nimport \"./interfaces/IERC20.sol\";\r\nimport \"./interfaces/IWETH.sol\";\r\n\r\ncontract ClassySwapRouter is IClassySwapRouter {\r\n    using SafeMath for uint256;\r\n\r\n    address public immutable override factory;\r\n    address public immutable override WETH;\r\n\r\n    modifier ensure(uint256 deadline) {\r\n        require(deadline >= block.timestamp, \"ClassySwapRouter: EXPIRED\");\r\n        _;\r\n    }\r\n\r\n    constructor(address _factory, address _WETH) public {\r\n        factory = _factory;\r\n        WETH = _WETH;\r\n    }\r\n\r\n    receive() external payable {\r\n        assert(msg.sender == WETH); // only accept ETH via fallback from the WETH contract\r\n    }\r\n\r\n    // **** ADD LIQUIDITY ****\r\n    function _addLiquidity(\r\n        address tokenA,\r\n        address tokenB,\r\n        uint256 amountADesired,\r\n        uint256 amountBDesired,\r\n        uint256 amountAMin,\r\n        uint256 amountBMin\r\n    ) internal virtual returns (uint256 amountA, uint256 amountB) {\r\n        // create the pair if it doesn't exist yet\r\n        if (IClassySwapFactory(factory).getPair(tokenA, tokenB) == address(0)) {\r\n            IClassySwapFactory(factory).createPair(tokenA, tokenB);\r\n        }\r\n        (uint256 reserveA, uint256 reserveB) = ClassySwapLibrary.getReserves(\r\n            factory,\r\n            tokenA,\r\n            tokenB\r\n        );\r\n        if (reserveA == 0 && reserveB == 0) {\r\n            (amountA, amountB) = (amountADesired, amountBDesired);\r\n        } else {\r\n            uint256 amountBOptimal = ClassySwapLibrary.quote(\r\n                amountADesired,\r\n                reserveA,\r\n                reserveB\r\n            );\r\n            if (amountBOptimal <= amountBDesired) {\r\n                require(\r\n                    amountBOptimal >= amountBMin,\r\n                    \"ClassySwapRouter: INSUFFICIENT_B_AMOUNT\"\r\n                );\r\n                (amountA, amountB) = (amountADesired, amountBOptimal);\r\n            } else {\r\n                uint256 amountAOptimal = ClassySwapLibrary.quote(\r\n                    amountBDesired,\r\n                    reserveB,\r\n                    reserveA\r\n                );\r\n                assert(amountAOptimal <= amountADesired);\r\n                require(\r\n                    amountAOptimal >= amountAMin,\r\n                    \"ClassySwapRouter: INSUFFICIENT_A_AMOUNT\"\r\n                );\r\n                (amountA, amountB) = (amountAOptimal, amountBDesired);\r\n            }\r\n        }\r\n    }\r\n\r\n    function addLiquidity(\r\n        address tokenA,\r\n        address tokenB,\r\n        uint256 amountADesired,\r\n        uint256 amountBDesired,\r\n        uint256 amountAMin,\r\n        uint256 amountBMin,\r\n        address to,\r\n        uint256 deadline\r\n    )\r\n        external\r\n        virtual\r\n        override\r\n        ensure(deadline)\r\n        returns (\r\n            uint256 amountA,\r\n            uint256 amountB,\r\n            uint256 liquidity\r\n        )\r\n    {\r\n        (amountA, amountB) = _addLiquidity(\r\n            tokenA,\r\n            tokenB,\r\n            amountADesired,\r\n            amountBDesired,\r\n            amountAMin,\r\n            amountBMin\r\n        );\r\n        address pair = ClassySwapLibrary.pairFor(factory, tokenA, tokenB);\r\n        TransferHelper.safeTransferFrom(tokenA, msg.sender, pair, amountA);\r\n        TransferHelper.safeTransferFrom(tokenB, msg.sender, pair, amountB);\r\n        liquidity = IClassySwapPair(pair).mint(to);\r\n    }\r\n\r\n    function addLiquidityETH(\r\n        address token,\r\n        uint256 amountTokenDesired,\r\n        uint256 amountTokenMin,\r\n        uint256 amountETHMin,\r\n        address to,\r\n        uint256 deadline\r\n    )\r\n        external\r\n        payable\r\n        virtual\r\n        override\r\n        ensure(deadline)\r\n        returns (\r\n            uint256 amountToken,\r\n            uint256 amountETH,\r\n            uint256 liquidity\r\n        )\r\n    {\r\n        (amountToken, amountETH) = _addLiquidity(\r\n            token,\r\n            WETH,\r\n            amountTokenDesired,\r\n            msg.value,\r\n            amountTokenMin,\r\n            amountETHMin\r\n        );\r\n        address pair = ClassySwapLibrary.pairFor(factory, token, WETH);\r\n        TransferHelper.safeTransferFrom(token, msg.sender, pair, amountToken);\r\n        IWETH(WETH).deposit{value: amountETH}();\r\n        assert(IWETH(WETH).transfer(pair, amountETH));\r\n        liquidity = IClassySwapPair(pair).mint(to);\r\n        // refund dust eth, if any\r\n        if (msg.value > amountETH)\r\n            TransferHelper.safeTransferETH(msg.sender, msg.value - amountETH);\r\n    }\r\n\r\n    // **** REMOVE LIQUIDITY ****\r\n    function removeLiquidity(\r\n        address tokenA,\r\n        address tokenB,\r\n        uint256 liquidity,\r\n        uint256 amountAMin,\r\n        uint256 amountBMin,\r\n        address to,\r\n        uint256 deadline\r\n    )\r\n        public\r\n        virtual\r\n        override\r\n        ensure(deadline)\r\n        returns (uint256 amountA, uint256 amountB)\r\n    {\r\n        address pair = ClassySwapLibrary.pairFor(factory, tokenA, tokenB);\r\n        IClassySwapPair(pair).transferFrom(msg.sender, pair, liquidity); // send liquidity to pair\r\n        (uint256 amount0, uint256 amount1) = IClassySwapPair(pair).burn(to);\r\n        (address token0, ) = ClassySwapLibrary.sortTokens(tokenA, tokenB);\r\n        (amountA, amountB) = tokenA == token0\r\n            ? (amount0, amount1)\r\n            : (amount1, amount0);\r\n        require(\r\n            amountA >= amountAMin,\r\n            \"ClassySwapRouter: INSUFFICIENT_A_AMOUNT\"\r\n        );\r\n        require(\r\n            amountB >= amountBMin,\r\n            \"ClassySwapRouter: INSUFFICIENT_B_AMOUNT\"\r\n        );\r\n    }\r\n\r\n    function removeLiquidityETH(\r\n        address token,\r\n        uint256 liquidity,\r\n        uint256 amountTokenMin,\r\n        uint256 amountETHMin,\r\n        address to,\r\n        uint256 deadline\r\n    )\r\n        public\r\n        virtual\r\n        override\r\n        ensure(deadline)\r\n        returns (uint256 amountToken, uint256 amountETH)\r\n    {\r\n        (amountToken, amountETH) = removeLiquidity(\r\n            token,\r\n            WETH,\r\n            liquidity,\r\n            amountTokenMin,\r\n            amountETHMin,\r\n            address(this),\r\n            deadline\r\n        );\r\n        TransferHelper.safeTransfer(token, to, amountToken);\r\n        IWETH(WETH).withdraw(amountETH);\r\n        TransferHelper.safeTransferETH(to, amountETH);\r\n    }\r\n\r\n    function removeLiquidityWithPermit(\r\n        address tokenA,\r\n        address tokenB,\r\n        uint256 liquidity,\r\n        uint256 amountAMin,\r\n        uint256 amountBMin,\r\n        address to,\r\n        uint256 deadline,\r\n        bool approveMax,\r\n        uint8 v,\r\n        bytes32 r,\r\n        bytes32 s\r\n    ) external virtual override returns (uint256 amountA, uint256 amountB) {\r\n        address pair = ClassySwapLibrary.pairFor(factory, tokenA, tokenB);\r\n        uint256 value = approveMax ? uint256(-1) : liquidity;\r\n        IClassySwapPair(pair).permit(\r\n            msg.sender,\r\n            address(this),\r\n            value,\r\n            deadline,\r\n            v,\r\n            r,\r\n            s\r\n        );\r\n        (amountA, amountB) = removeLiquidity(\r\n            tokenA,\r\n            tokenB,\r\n            liquidity,\r\n            amountAMin,\r\n            amountBMin,\r\n            to,\r\n            deadline\r\n        );\r\n    }\r\n\r\n    function removeLiquidityETHWithPermit(\r\n        address token,\r\n        uint256 liquidity,\r\n        uint256 amountTokenMin,\r\n        uint256 amountETHMin,\r\n        address to,\r\n        uint256 deadline,\r\n        bool approveMax,\r\n        uint8 v,\r\n        bytes32 r,\r\n        bytes32 s\r\n    )\r\n        external\r\n        virtual\r\n        override\r\n        returns (uint256 amountToken, uint256 amountETH)\r\n    {\r\n        address pair = ClassySwapLibrary.pairFor(factory, token, WETH);\r\n        uint256 value = approveMax ? uint256(-1) : liquidity;\r\n        IClassySwapPair(pair).permit(\r\n            msg.sender,\r\n            address(this),\r\n            value,\r\n            deadline,\r\n            v,\r\n            r,\r\n            s\r\n        );\r\n        (amountToken, amountETH) = removeLiquidityETH(\r\n            token,\r\n            liquidity,\r\n            amountTokenMin,\r\n            amountETHMin,\r\n            to,\r\n            deadline\r\n        );\r\n    }\r\n\r\n    // **** REMOVE LIQUIDITY (supporting fee-on-transfer tokens) ****\r\n    function removeLiquidityETHSupportingFeeOnTransferTokens(\r\n        address token,\r\n        uint256 liquidity,\r\n        uint256 amountTokenMin,\r\n        uint256 amountETHMin,\r\n        address to,\r\n        uint256 deadline\r\n    ) public virtual override ensure(deadline) returns (uint256 amountETH) {\r\n        (, amountETH) = removeLiquidity(\r\n            token,\r\n            WETH,\r\n            liquidity,\r\n            amountTokenMin,\r\n            amountETHMin,\r\n            address(this),\r\n            deadline\r\n        );\r\n        TransferHelper.safeTransfer(\r\n            token,\r\n            to,\r\n            IERC20(token).balanceOf(address(this))\r\n        );\r\n        IWETH(WETH).withdraw(amountETH);\r\n        TransferHelper.safeTransferETH(to, amountETH);\r\n    }\r\n\r\n    function removeLiquidityETHWithPermitSupportingFeeOnTransferTokens(\r\n        address token,\r\n        uint256 liquidity,\r\n        uint256 amountTokenMin,\r\n        uint256 amountETHMin,\r\n        address to,\r\n        uint256 deadline,\r\n        bool approveMax,\r\n        uint8 v,\r\n        bytes32 r,\r\n        bytes32 s\r\n    ) external virtual override returns (uint256 amountETH) {\r\n        address pair = ClassySwapLibrary.pairFor(factory, token, WETH);\r\n        uint256 value = approveMax ? uint256(-1) : liquidity;\r\n        IClassySwapPair(pair).permit(\r\n            msg.sender,\r\n            address(this),\r\n            value,\r\n            deadline,\r\n            v,\r\n            r,\r\n            s\r\n        );\r\n        amountETH = removeLiquidityETHSupportingFeeOnTransferTokens(\r\n            token,\r\n            liquidity,\r\n            amountTokenMin,\r\n            amountETHMin,\r\n            to,\r\n            deadline\r\n        );\r\n    }\r\n\r\n    // **** SWAP ****\r\n    // requires the initial amount to have already been sent to the first pair\r\n    function _swap(\r\n        uint256[] memory amounts,\r\n        address[] memory path,\r\n        address _to\r\n    ) internal virtual {\r\n        for (uint256 i; i < path.length - 1; i++) {\r\n            (address input, address output) = (path[i], path[i + 1]);\r\n            (address token0, ) = ClassySwapLibrary.sortTokens(input, output);\r\n            uint256 amountOut = amounts[i + 1];\r\n            (uint256 amount0Out, uint256 amount1Out) = input == token0\r\n                ? (uint256(0), amountOut)\r\n                : (amountOut, uint256(0));\r\n            address to = i < path.length - 2\r\n                ? ClassySwapLibrary.pairFor(factory, output, path[i + 2])\r\n                : _to;\r\n            IClassySwapPair(ClassySwapLibrary.pairFor(factory, input, output))\r\n                .swap(amount0Out, amount1Out, to, new bytes(0));\r\n        }\r\n    }\r\n\r\n    function swapExactTokensForTokens(\r\n        uint256 amountIn,\r\n        uint256 amountOutMin,\r\n        address[] calldata path,\r\n        address to,\r\n        uint256 deadline\r\n    )\r\n        external\r\n        virtual\r\n        override\r\n        ensure(deadline)\r\n        returns (uint256[] memory amounts)\r\n    {\r\n        amounts = ClassySwapLibrary.getAmountsOut(factory, amountIn, path);\r\n        require(\r\n            amounts[amounts.length - 1] >= amountOutMin,\r\n            \"ClassySwapRouter: INSUFFICIENT_OUTPUT_AMOUNT\"\r\n        );\r\n        TransferHelper.safeTransferFrom(\r\n            path[0],\r\n            msg.sender,\r\n            ClassySwapLibrary.pairFor(factory, path[0], path[1]),\r\n            amounts[0]\r\n        );\r\n        _swap(amounts, path, to);\r\n    }\r\n\r\n    function swapTokensForExactTokens(\r\n        uint256 amountOut,\r\n        uint256 amountInMax,\r\n        address[] calldata path,\r\n        address to,\r\n        uint256 deadline\r\n    )\r\n        external\r\n        virtual\r\n        override\r\n        ensure(deadline)\r\n        returns (uint256[] memory amounts)\r\n    {\r\n        amounts = ClassySwapLibrary.getAmountsIn(factory, amountOut, path);\r\n        require(\r\n            amounts[0] <= amountInMax,\r\n            \"ClassySwapRouter: EXCESSIVE_INPUT_AMOUNT\"\r\n        );\r\n        TransferHelper.safeTransferFrom(\r\n            path[0],\r\n            msg.sender,\r\n            ClassySwapLibrary.pairFor(factory, path[0], path[1]),\r\n            amounts[0]\r\n        );\r\n        _swap(amounts, path, to);\r\n    }\r\n\r\n    function swapExactETHForTokens(\r\n        uint256 amountOutMin,\r\n        address[] calldata path,\r\n        address to,\r\n        uint256 deadline\r\n    )\r\n        external\r\n        payable\r\n        virtual\r\n        override\r\n        ensure(deadline)\r\n        returns (uint256[] memory amounts)\r\n    {\r\n        require(path[0] == WETH, \"ClassySwapRouter: INVALID_PATH\");\r\n        amounts = ClassySwapLibrary.getAmountsOut(factory, msg.value, path);\r\n        require(\r\n            amounts[amounts.length - 1] >= amountOutMin,\r\n            \"ClassySwapRouter: INSUFFICIENT_OUTPUT_AMOUNT\"\r\n        );\r\n        IWETH(WETH).deposit{value: amounts[0]}();\r\n        assert(\r\n            IWETH(WETH).transfer(\r\n                ClassySwapLibrary.pairFor(factory, path[0], path[1]),\r\n                amounts[0]\r\n            )\r\n        );\r\n        _swap(amounts, path, to);\r\n    }\r\n\r\n    function swapTokensForExactETH(\r\n        uint256 amountOut,\r\n        uint256 amountInMax,\r\n        address[] calldata path,\r\n        address to,\r\n        uint256 deadline\r\n    )\r\n        external\r\n        virtual\r\n        override\r\n        ensure(deadline)\r\n        returns (uint256[] memory amounts)\r\n    {\r\n        require(\r\n            path[path.length - 1] == WETH,\r\n            \"ClassySwapRouter: INVALID_PATH\"\r\n        );\r\n        amounts = ClassySwapLibrary.getAmountsIn(factory, amountOut, path);\r\n        require(\r\n            amounts[0] <= amountInMax,\r\n            \"ClassySwapRouter: EXCESSIVE_INPUT_AMOUNT\"\r\n        );\r\n        TransferHelper.safeTransferFrom(\r\n            path[0],\r\n            msg.sender,\r\n            ClassySwapLibrary.pairFor(factory, path[0], path[1]),\r\n            amounts[0]\r\n        );\r\n        _swap(amounts, path, address(this));\r\n        IWETH(WETH).withdraw(amounts[amounts.length - 1]);\r\n        TransferHelper.safeTransferETH(to, amounts[amounts.length - 1]);\r\n    }\r\n\r\n    function swapExactTokensForETH(\r\n        uint256 amountIn,\r\n        uint256 amountOutMin,\r\n        address[] calldata path,\r\n        address to,\r\n        uint256 deadline\r\n    )\r\n        external\r\n        virtual\r\n        override\r\n        ensure(deadline)\r\n        returns (uint256[] memory amounts)\r\n    {\r\n        require(\r\n            path[path.length - 1] == WETH,\r\n            \"ClassySwapRouter: INVALID_PATH\"\r\n        );\r\n        amounts = ClassySwapLibrary.getAmountsOut(factory, amountIn, path);\r\n        require(\r\n            amounts[amounts.length - 1] >= amountOutMin,\r\n            \"ClassySwapRouter: INSUFFICIENT_OUTPUT_AMOUNT\"\r\n        );\r\n        TransferHelper.safeTransferFrom(\r\n            path[0],\r\n            msg.sender,\r\n            ClassySwapLibrary.pairFor(factory, path[0], path[1]),\r\n            amounts[0]\r\n        );\r\n        _swap(amounts, path, address(this));\r\n        IWETH(WETH).withdraw(amounts[amounts.length - 1]);\r\n        TransferHelper.safeTransferETH(to, amounts[amounts.length - 1]);\r\n    }\r\n\r\n    function swapETHForExactTokens(\r\n        uint256 amountOut,\r\n        address[] calldata path,\r\n        address to,\r\n        uint256 deadline\r\n    )\r\n        external\r\n        payable\r\n        virtual\r\n        override\r\n        ensure(deadline)\r\n        returns (uint256[] memory amounts)\r\n    {\r\n        require(path[0] == WETH, \"ClassySwapRouter: INVALID_PATH\");\r\n        amounts = ClassySwapLibrary.getAmountsIn(factory, amountOut, path);\r\n        require(\r\n            amounts[0] <= msg.value,\r\n            \"ClassySwapRouter: EXCESSIVE_INPUT_AMOUNT\"\r\n        );\r\n        IWETH(WETH).deposit{value: amounts[0]}();\r\n        assert(\r\n            IWETH(WETH).transfer(\r\n                ClassySwapLibrary.pairFor(factory, path[0], path[1]),\r\n                amounts[0]\r\n            )\r\n        );\r\n        _swap(amounts, path, to);\r\n        // refund dust eth, if any\r\n        if (msg.value > amounts[0])\r\n            TransferHelper.safeTransferETH(msg.sender, msg.value - amounts[0]);\r\n    }\r\n\r\n/*\r\n    // **** SWAP (supporting fee-on-transfer tokens) ****\r\n    // requires the initial amount to have already been sent to the first pair\r\n    function _swapSupportingFeeOnTransferTokens(\r\n        address[] memory path,\r\n        address _to\r\n    ) internal virtual {\r\n        for (uint256 i; i < path.length - 1; i++) {\r\n            (address input, address output) = (path[i], path[i + 1]);\r\n            (address token0, ) = ClassySwapLibrary.sortTokens(input, output);\r\n            IClassySwapPair pair = IClassySwapPair(\r\n                ClassySwapLibrary.pairFor(factory, input, output)\r\n            );\r\n            uint256 amountInput;\r\n            uint256 amountOutput;\r\n            {\r\n                // scope to avoid stack too deep errors\r\n                (uint256 reserve0, uint256 reserve1, ) = pair.getReserves();\r\n                (uint256 reserveInput, uint256 reserveOutput) = input == token0\r\n                    ? (reserve0, reserve1)\r\n                    : (reserve1, reserve0);\r\n                amountInput = IERC20(input).balanceOf(address(pair)).sub(\r\n                    reserveInput\r\n                );\r\n                amountOutput = ClassySwapLibrary.getAmountOut(\r\n                    amountInput,\r\n                    reserveInput,\r\n                    reserveOutput\r\n                );\r\n            }\r\n            (uint256 amount0Out, uint256 amount1Out) = input == token0\r\n                ? (uint256(0), amountOutput)\r\n                : (amountOutput, uint256(0));\r\n            address to = i < path.length - 2\r\n                ? ClassySwapLibrary.pairFor(factory, output, path[i + 2])\r\n                : _to;\r\n            pair.swap(amount0Out, amount1Out, to, new bytes(0));\r\n        }\r\n    }\r\n\r\n    function swapExactTokensForTokensSupportingFeeOnTransferTokens(\r\n        uint256 amountIn,\r\n        uint256 amountOutMin,\r\n        address[] calldata path,\r\n        address to,\r\n        uint256 deadline\r\n    ) external virtual override ensure(deadline) {\r\n        TransferHelper.safeTransferFrom(\r\n            path[0],\r\n            msg.sender,\r\n            ClassySwapLibrary.pairFor(factory, path[0], path[1]),\r\n            amountIn\r\n        );\r\n        uint256 balanceBefore = IERC20(path[path.length - 1]).balanceOf(to);\r\n        _swapSupportingFeeOnTransferTokens(path, to);\r\n        require(\r\n            IERC20(path[path.length - 1]).balanceOf(to).sub(balanceBefore) >=\r\n                amountOutMin,\r\n            \"ClassySwapRouter: INSUFFICIENT_OUTPUT_AMOUNT\"\r\n        );\r\n    }\r\n\r\n    function swapExactETHForTokensSupportingFeeOnTransferTokens(\r\n        uint256 amountOutMin,\r\n        address[] calldata path,\r\n        address to,\r\n        uint256 deadline\r\n    ) external payable virtual override ensure(deadline) {\r\n        require(path[0] == WETH, \"ClassySwapRouter: INVALID_PATH\");\r\n        uint256 amountIn = msg.value;\r\n        IWETH(WETH).deposit{value: amountIn}();\r\n        assert(\r\n            IWETH(WETH).transfer(\r\n                ClassySwapLibrary.pairFor(factory, path[0], path[1]),\r\n                amountIn\r\n            )\r\n        );\r\n        uint256 balanceBefore = IERC20(path[path.length - 1]).balanceOf(to);\r\n        _swapSupportingFeeOnTransferTokens(path, to);\r\n        require(\r\n            IERC20(path[path.length - 1]).balanceOf(to).sub(balanceBefore) >=\r\n                amountOutMin,\r\n            \"ClassySwapRouter: INSUFFICIENT_OUTPUT_AMOUNT\"\r\n        );\r\n    }\r\n\r\n    function swapExactTokensForETHSupportingFeeOnTransferTokens(\r\n        uint256 amountIn,\r\n        uint256 amountOutMin,\r\n        address[] calldata path,\r\n        address to,\r\n        uint256 deadline\r\n    ) external virtual override ensure(deadline) {\r\n        require(\r\n            path[path.length - 1] == WETH,\r\n            \"ClassySwapRouter: INVALID_PATH\"\r\n        );\r\n        TransferHelper.safeTransferFrom(\r\n            path[0],\r\n            msg.sender,\r\n            ClassySwapLibrary.pairFor(factory, path[0], path[1]),\r\n            amountIn\r\n        );\r\n        _swapSupportingFeeOnTransferTokens(path, address(this));\r\n        uint256 amountOut = IERC20(WETH).balanceOf(address(this));\r\n        require(\r\n            amountOut >= amountOutMin,\r\n            \"ClassySwapRouter: INSUFFICIENT_OUTPUT_AMOUNT\"\r\n        );\r\n        IWETH(WETH).withdraw(amountOut);\r\n        TransferHelper.safeTransferETH(to, amountOut);\r\n    }\r\n*/\r\n    // **** LIBRARY FUNCTIONS ****\r\n    function quote(\r\n        uint256 amountA,\r\n        uint256 reserveA,\r\n        uint256 reserveB\r\n    ) public pure virtual override returns (uint256 amountB) {\r\n        return ClassySwapLibrary.quote(amountA, reserveA, reserveB);\r\n    }\r\n\r\n    function getAmountOut(\r\n        uint256 amountIn,\r\n        uint256 reserveIn,\r\n        uint256 reserveOut\r\n    ) public pure virtual override returns (uint256 amountOut) {\r\n        return ClassySwapLibrary.getAmountOut(amountIn, reserveIn, reserveOut);\r\n    }\r\n\r\n    function getAmountIn(\r\n        uint256 amountOut,\r\n        uint256 reserveIn,\r\n        uint256 reserveOut\r\n    ) public pure virtual override returns (uint256 amountIn) {\r\n        return ClassySwapLibrary.getAmountIn(amountOut, reserveIn, reserveOut);\r\n    }\r\n\r\n    function getAmountsOut(uint256 amountIn, address[] memory path)\r\n        public\r\n        view\r\n        virtual\r\n        override\r\n        returns (uint256[] memory amounts)\r\n    {\r\n        return ClassySwapLibrary.getAmountsOut(factory, amountIn, path);\r\n    }\r\n\r\n    function getAmountsIn(uint256 amountOut, address[] memory path)\r\n        public\r\n        view\r\n        virtual\r\n        override\r\n        returns (uint256[] memory amounts)\r\n    {\r\n        return ClassySwapLibrary.getAmountsIn(factory, amountOut, path);\r\n    }\r\n}\r\n",
  "sourcePath": "C:/dev/defi/classy-contract/classy-periphery/contracts/ClassySwapRouter.sol",
  "compiler": {
    "name": "solc",
    "version": "0.6.6+commit.6c089d02.Emscripten.clang"
  },
  "schemaVersion": "3.2.3",
  "updatedAt": "2021-08-05T10:56:52.856Z",
  "networkType": "ethereum",
  "devdoc": {
    "methods": {}
  },
  "userdoc": {
    "methods": {}
  }
}