{
  "contractName": "ExampleComputeLiquidityValue",
  "abi": [
    {
      "inputs": [
        {
          "internalType": "address",
          "name": "factory_",
          "type": "address"
        }
      ],
      "stateMutability": "nonpayable",
      "type": "constructor"
    },
    {
      "inputs": [],
      "name": "factory",
      "outputs": [
        {
          "internalType": "address",
          "name": "",
          "type": "address"
        }
      ],
      "stateMutability": "view",
      "type": "function"
    },
    {
      "inputs": [
        {
          "internalType": "address",
          "name": "tokenA",
          "type": "address"
        },
        {
          "internalType": "address",
          "name": "tokenB",
          "type": "address"
        },
        {
          "internalType": "uint256",
          "name": "truePriceTokenA",
          "type": "uint256"
        },
        {
          "internalType": "uint256",
          "name": "truePriceTokenB",
          "type": "uint256"
        }
      ],
      "name": "getReservesAfterArbitrage",
      "outputs": [
        {
          "internalType": "uint256",
          "name": "reserveA",
          "type": "uint256"
        },
        {
          "internalType": "uint256",
          "name": "reserveB",
          "type": "uint256"
        }
      ],
      "stateMutability": "view",
      "type": "function"
    },
    {
      "inputs": [
        {
          "internalType": "address",
          "name": "tokenA",
          "type": "address"
        },
        {
          "internalType": "address",
          "name": "tokenB",
          "type": "address"
        },
        {
          "internalType": "uint256",
          "name": "liquidityAmount",
          "type": "uint256"
        }
      ],
      "name": "getLiquidityValue",
      "outputs": [
        {
          "internalType": "uint256",
          "name": "tokenAAmount",
          "type": "uint256"
        },
        {
          "internalType": "uint256",
          "name": "tokenBAmount",
          "type": "uint256"
        }
      ],
      "stateMutability": "view",
      "type": "function"
    },
    {
      "inputs": [
        {
          "internalType": "address",
          "name": "tokenA",
          "type": "address"
        },
        {
          "internalType": "address",
          "name": "tokenB",
          "type": "address"
        },
        {
          "internalType": "uint256",
          "name": "truePriceTokenA",
          "type": "uint256"
        },
        {
          "internalType": "uint256",
          "name": "truePriceTokenB",
          "type": "uint256"
        },
        {
          "internalType": "uint256",
          "name": "liquidityAmount",
          "type": "uint256"
        }
      ],
      "name": "getLiquidityValueAfterArbitrageToPrice",
      "outputs": [
        {
          "internalType": "uint256",
          "name": "tokenAAmount",
          "type": "uint256"
        },
        {
          "internalType": "uint256",
          "name": "tokenBAmount",
          "type": "uint256"
        }
      ],
      "stateMutability": "view",
      "type": "function"
    },
    {
      "inputs": [
        {
          "internalType": "address",
          "name": "tokenA",
          "type": "address"
        },
        {
          "internalType": "address",
          "name": "tokenB",
          "type": "address"
        },
        {
          "internalType": "uint256",
          "name": "truePriceTokenA",
          "type": "uint256"
        },
        {
          "internalType": "uint256",
          "name": "truePriceTokenB",
          "type": "uint256"
        },
        {
          "internalType": "uint256",
          "name": "liquidityAmount",
          "type": "uint256"
        }
      ],
      "name": "getGasCostOfGetLiquidityValueAfterArbitrageToPrice",
      "outputs": [
        {
          "internalType": "uint256",
          "name": "",
          "type": "uint256"
        }
      ],
      "stateMutability": "view",
      "type": "function"
    }
  ],
  "bytecode": "0x60a060405234801561001057600080fd5b506040516116423803806116428339818101604052602081101561003357600080fd5b81019080805190602001909291905050508073ffffffffffffffffffffffffffffffffffffffff1660808173ffffffffffffffffffffffffffffffffffffffff1660601b815250505060805160601c6115956100ad600039806102fd528061033a528061037c52806103be52806103e852506115956000f3fe608060405234801561001057600080fd5b50600436106100575760003560e01c80633558e94c1461005c57806369a2fcbd146100ef57806380caa3531461018c578063c45a015514610222578063d9b7a6e71461026c575b600080fd5b6100d26004803603608081101561007257600080fd5b81019080803573ffffffffffffffffffffffffffffffffffffffff169060200190929190803573ffffffffffffffffffffffffffffffffffffffff16906020019092919080359060200190929190803590602001909291905050506102f5565b604051808381526020018281526020019250505060405180910390f35b61016f600480360360a081101561010557600080fd5b81019080803573ffffffffffffffffffffffffffffffffffffffff169060200190929190803573ffffffffffffffffffffffffffffffffffffffff169060200190929190803590602001909291908035906020019092919080359060200190929190505050610332565b604051808381526020018281526020019250505060405180910390f35b61020c600480360360a08110156101a257600080fd5b81019080803573ffffffffffffffffffffffffffffffffffffffff169060200190929190803573ffffffffffffffffffffffffffffffffffffffff169060200190929190803590602001909291908035906020019092919080359060200190929190505050610371565b6040518082815260200191505060405180910390f35b61022a6103bc565b604051808273ffffffffffffffffffffffffffffffffffffffff1673ffffffffffffffffffffffffffffffffffffffff16815260200191505060405180910390f35b6102d86004803603606081101561028257600080fd5b81019080803573ffffffffffffffffffffffffffffffffffffffff169060200190929190803573ffffffffffffffffffffffffffffffffffffffff169060200190929190803590602001909291905050506103e0565b604051808381526020018281526020019250505060405180910390f35b6000806103257f00000000000000000000000000000000000000000000000000000000000000008787878761041b565b9150915094509492505050565b6000806103637f0000000000000000000000000000000000000000000000000000000000000000888888888861050c565b915091509550959350505050565b6000805a90506103a57f0000000000000000000000000000000000000000000000000000000000000000888888888861050c565b505060005a90508082039250505095945050505050565b7f000000000000000000000000000000000000000000000000000000000000000081565b60008061040f7f0000000000000000000000000000000000000000000000000000000000000000868686610785565b91509150935093915050565b600080610429878787610995565b80925081935050506000821180156104415750600081115b610496576040517f08c379a000000000000000000000000000000000000000000000000000000000815260040180806020018281038252602e815260200180611490602e913960400191505060405180910390fd5b6000806104a586868686610abe565b9150915060008114156104bf578383935093505050610502565b81156104e45760006104d2828686610bbe565b905081850194508084039350506104ff565b60006104f1828587610bbe565b905081840193508085039450505b50505b9550959350505050565b60008060008073ffffffffffffffffffffffffffffffffffffffff168973ffffffffffffffffffffffffffffffffffffffff1663017e7e586040518163ffffffff1660e01b815260040160206040518083038186803b15801561056e57600080fd5b505afa158015610582573d6000803e3d6000fd5b505050506040513d602081101561059857600080fd5b810190808051906020019092919050505073ffffffffffffffffffffffffffffffffffffffff161415905060006105d08a8a8a610cee565b90506000826105e0576000610662565b8173ffffffffffffffffffffffffffffffffffffffff16637464fc3d6040518163ffffffff1660e01b815260040160206040518083038186803b15801561062657600080fd5b505afa15801561063a573d6000803e3d6000fd5b505050506040513d602081101561065057600080fd5b81019080805190602001909291905050505b905060008273ffffffffffffffffffffffffffffffffffffffff166318160ddd6040518163ffffffff1660e01b815260040160206040518083038186803b1580156106ac57600080fd5b505afa1580156106c0573d6000803e3d6000fd5b505050506040513d60208110156106d657600080fd5b810190808051906020019092919050505090508681101580156106f95750600087115b61074e576040517f08c379a00000000000000000000000000000000000000000000000000000000081526004018080602001828103825260278152602001806115396027913960400191505060405180910390fd5b60008061075e8e8e8e8e8e61041b565b915091506107708282858c8a89610e49565b97509750505050505050965096945050505050565b600080600080610796888888610995565b9150915060006107a7898989610cee565b905060008073ffffffffffffffffffffffffffffffffffffffff168a73ffffffffffffffffffffffffffffffffffffffff1663017e7e586040518163ffffffff1660e01b815260040160206040518083038186803b15801561080857600080fd5b505afa15801561081c573d6000803e3d6000fd5b505050506040513d602081101561083257600080fd5b810190808051906020019092919050505073ffffffffffffffffffffffffffffffffffffffff161415905060008161086b5760006108ed565b8273ffffffffffffffffffffffffffffffffffffffff16637464fc3d6040518163ffffffff1660e01b815260040160206040518083038186803b1580156108b157600080fd5b505afa1580156108c5573d6000803e3d6000fd5b505050506040513d60208110156108db57600080fd5b81019080805190602001909291905050505b905060008373ffffffffffffffffffffffffffffffffffffffff166318160ddd6040518163ffffffff1660e01b815260040160206040518083038186803b15801561093757600080fd5b505afa15801561094b573d6000803e3d6000fd5b505050506040513d602081101561096157600080fd5b810190808051906020019092919050505090506109828686838c8787610e49565b9750975050505050505094509492505050565b60008060006109a48585610f4b565b5090506000806109b5888888610cee565b73ffffffffffffffffffffffffffffffffffffffff16630902f1ac6040518163ffffffff1660e01b815260040160606040518083038186803b1580156109fa57600080fd5b505afa158015610a0e573d6000803e3d6000fd5b505050506040513d6060811015610a2457600080fd5b81019080805190602001909291908051906020019092919080519060200190929190505050506dffffffffffffffffffffffffffff1691506dffffffffffffffffffffffffffff1691508273ffffffffffffffffffffffffffffffffffffffff168773ffffffffffffffffffffffffffffffffffffffff1614610aa8578082610aab565b81815b8095508196505050505050935093915050565b60008085610acd8587866110c2565b1091506000610ae584866111a290919063ffffffff16565b90506000610b3c610b37610b046103e8856111a290919063ffffffff16565b86610b0f5789610b11565b8a5b610b326103e589610b22578d610b24565b8c5b6111a290919063ffffffff16565b6110c2565b611237565b905060006103e585610b6257610b5d6103e8886111a290919063ffffffff16565b610b78565b610b776103e8896111a290919063ffffffff16565b5b81610b7f57fe5b04905080821015610b9c5760008080905094509450505050610bb5565b610baf818361129990919063ffffffff16565b93505050505b94509492505050565b6000808411610c18576040517f08c379a000000000000000000000000000000000000000000000000000000000815260040180806020018281038252602c8152602001806114be602c913960400191505060405180910390fd5b600083118015610c285750600082115b610c7d576040517f08c379a00000000000000000000000000000000000000000000000000000000081526004018080602001828103825260298152602001806114ea6029913960400191505060405180910390fd5b6000610c946103e5866111a290919063ffffffff16565b90506000610cab84836111a290919063ffffffff16565b90506000610cd683610cc86103e8896111a290919063ffffffff16565b61131c90919063ffffffff16565b9050808281610ce157fe5b0493505050509392505050565b6000806000610cfd8585610f4b565b91509150858282604051602001808373ffffffffffffffffffffffffffffffffffffffff1673ffffffffffffffffffffffffffffffffffffffff1660601b81526014018273ffffffffffffffffffffffffffffffffffffffff1673ffffffffffffffffffffffffffffffffffffffff1660601b8152601401925050506040516020818303038152906040528051906020012060405160200180807fff000000000000000000000000000000000000000000000000000000000000008152506001018373ffffffffffffffffffffffffffffffffffffffff1673ffffffffffffffffffffffffffffffffffffffff1660601b8152601401828152602001807fc0aa6bea11204c97a76e84a0b3c556904bb02888e8bba38a660cce336952f63c815250602001925050506040516020818303038152906040528051906020012060001c925050509392505050565b600080838015610e595750600083115b15610f04576000610e7b610e76898b6111a290919063ffffffff16565b611237565b90506000610e8885611237565b905080821115610f015760008890506000610eac838561129990919063ffffffff16565b90506000610ed684610ec86005886111a290919063ffffffff16565b61131c90919063ffffffff16565b90506000610ee58484846110c2565b9050610efa818d61131c90919063ffffffff16565b9b50505050505b50505b85610f18868a6111a290919063ffffffff16565b81610f1f57fe5b0486610f34878a6111a290919063ffffffff16565b81610f3b57fe5b0491509150965096945050505050565b6000808273ffffffffffffffffffffffffffffffffffffffff168473ffffffffffffffffffffffffffffffffffffffff161415610fd3576040517f08c379a00000000000000000000000000000000000000000000000000000000081526004018080602001828103825260268152602001806115136026913960400191505060405180910390fd5b8273ffffffffffffffffffffffffffffffffffffffff168473ffffffffffffffffffffffffffffffffffffffff161061100d578284611010565b83835b8092508193505050600073ffffffffffffffffffffffffffffffffffffffff168273ffffffffffffffffffffffffffffffffffffffff1614156110bb576040517f08c379a000000000000000000000000000000000000000000000000000000000815260040180806020018281038252601f8152602001807f436c61737379537761704c6962726172793a205a45524f5f414444524553530081525060200191505060405180910390fd5b9250929050565b60008060006110d1868661139f565b91509150600084806110df57fe5b8688099050828111156110f3576001820391505b808303925060008214156111155784838161110a57fe5b04935050505061119b565b84821061118a576040517f08c379a000000000000000000000000000000000000000000000000000000000815260040180806020018281038252601a8152602001807f46756c6c4d6174683a2046554c4c4449565f4f564552464c4f5700000000000081525060200191505060405180910390fd5b6111958383876113f2565b93505050505b9392505050565b6000808214806111bf57508282838502925082816111bc57fe5b04145b611231576040517f08c379a00000000000000000000000000000000000000000000000000000000081526004018080602001828103825260148152602001807f64732d6d6174682d6d756c2d6f766572666c6f7700000000000000000000000081525060200191505060405180910390fd5b92915050565b6000600382111561128657819050600060016002848161125357fe5b040190505b818110156112805780915060028182858161126f57fe5b04018161127857fe5b049050611258565b50611294565b6000821461129357600190505b5b919050565b6000828284039150811115611316576040517f08c379a00000000000000000000000000000000000000000000000000000000081526004018080602001828103825260158152602001807f64732d6d6174682d7375622d756e646572666c6f77000000000000000000000081525060200191505060405180910390fd5b92915050565b6000828284019150811015611399576040517f08c379a00000000000000000000000000000000000000000000000000000000081526004018080602001828103825260148152602001807f64732d6d6174682d6164642d6f766572666c6f7700000000000000000000000081525060200191505060405180910390fd5b92915050565b60008060007fffffffffffffffffffffffffffffffffffffffffffffffffffffffffffffffff806113cc57fe5b848609905083850292508281039150828110156113ea576001820391505b509250929050565b600080826000038316905080838161140657fe5b04925080858161141257fe5b049450600181826000038161142357fe5b0401840285019450600060019050808402600203810290508084026002038102905080840260020381029050808402600203810290508084026002038102905080840260020381029050808402600203810290508084026002038102905080860292505050939250505056fe436c61737379537761704172626974726167654c6962726172793a205a45524f5f504149525f5245534552564553436c61737379537761704c6962726172793a20494e53554646494349454e545f494e5055545f414d4f554e54436c61737379537761704c6962726172793a20494e53554646494349454e545f4c4951554944495459436c61737379537761704c6962726172793a204944454e544943414c5f414444524553534553436f6d707574654c697175696469747956616c75653a204c49515549444954595f414d4f554e54a264697066735822122094e3a176924b901581b457ba116c63e9907d61df58651877f7b058fc6ab3049964736f6c63430006060033",
  "immutableReferences": {
    "2543": [
      {
        "length": 32,
        "start": 765
      },
      {
        "length": 32,
        "start": 826
      },
      {
        "length": 32,
        "start": 892
      },
      {
        "length": 32,
        "start": 958
      },
      {
        "length": 32,
        "start": 1000
      }
    ]
  },
  "source": "pragma solidity =0.6.6;\r\n\r\nimport '../libraries/ClassySwapLiquidityMathLibrary.sol';\r\n\r\ncontract ExampleComputeLiquidityValue {\r\n    using SafeMath for uint256;\r\n\r\n    address public immutable factory;\r\n\r\n    constructor(address factory_) public {\r\n        factory = factory_;\r\n    }\r\n\r\n    // see ClassySwapLiquidityMathLibrary#getReservesAfterArbitrage\r\n    function getReservesAfterArbitrage(\r\n        address tokenA,\r\n        address tokenB,\r\n        uint256 truePriceTokenA,\r\n        uint256 truePriceTokenB\r\n    ) external view returns (uint256 reserveA, uint256 reserveB) {\r\n        return ClassySwapLiquidityMathLibrary.getReservesAfterArbitrage(\r\n            factory,\r\n            tokenA,\r\n            tokenB,\r\n            truePriceTokenA,\r\n            truePriceTokenB\r\n        );\r\n    }\r\n\r\n    // see ClassySwapLiquidityMathLibrary#getLiquidityValue\r\n    function getLiquidityValue(\r\n        address tokenA,\r\n        address tokenB,\r\n        uint256 liquidityAmount\r\n    ) external view returns (\r\n        uint256 tokenAAmount,\r\n        uint256 tokenBAmount\r\n    ) {\r\n        return ClassySwapLiquidityMathLibrary.getLiquidityValue(\r\n            factory,\r\n            tokenA,\r\n            tokenB,\r\n            liquidityAmount\r\n        );\r\n    }\r\n\r\n    // see ClassySwapLiquidityMathLibrary#getLiquidityValueAfterArbitrageToPrice\r\n    function getLiquidityValueAfterArbitrageToPrice(\r\n        address tokenA,\r\n        address tokenB,\r\n        uint256 truePriceTokenA,\r\n        uint256 truePriceTokenB,\r\n        uint256 liquidityAmount\r\n    ) external view returns (\r\n        uint256 tokenAAmount,\r\n        uint256 tokenBAmount\r\n    ) {\r\n        return ClassySwapLiquidityMathLibrary.getLiquidityValueAfterArbitrageToPrice(\r\n            factory,\r\n            tokenA,\r\n            tokenB,\r\n            truePriceTokenA,\r\n            truePriceTokenB,\r\n            liquidityAmount\r\n        );\r\n    }\r\n\r\n    // test function to measure the gas cost of the above function\r\n    function getGasCostOfGetLiquidityValueAfterArbitrageToPrice(\r\n        address tokenA,\r\n        address tokenB,\r\n        uint256 truePriceTokenA,\r\n        uint256 truePriceTokenB,\r\n        uint256 liquidityAmount\r\n    ) external view returns (\r\n        uint256\r\n    ) {\r\n        uint gasBefore = gasleft();\r\n        ClassySwapLiquidityMathLibrary.getLiquidityValueAfterArbitrageToPrice(\r\n            factory,\r\n            tokenA,\r\n            tokenB,\r\n            truePriceTokenA,\r\n            truePriceTokenB,\r\n            liquidityAmount\r\n        );\r\n        uint gasAfter = gasleft();\r\n        return gasBefore - gasAfter;\r\n    }\r\n}\r\n",
  "sourcePath": "C:/dev/defi/classy-contract/classy-periphery/contracts/examples/ExampleComputeLiquidityValue.sol",
  "compiler": {
    "name": "solc",
    "version": "0.6.6+commit.6c089d02.Emscripten.clang"
  },
  "schemaVersion": "3.2.3",
  "updatedAt": "2021-08-05T10:43:19.943Z",
  "devdoc": {
    "methods": {}
  },
  "userdoc": {
    "methods": {}
  }
}