{
  "contractName": "RouterEventEmitter",
  "abi": [
    {
      "anonymous": false,
      "inputs": [
        {
          "indexed": false,
          "internalType": "uint256[]",
          "name": "amounts",
          "type": "uint256[]"
        }
      ],
      "name": "Amounts",
      "type": "event"
    },
    {
      "stateMutability": "payable",
      "type": "receive"
    },
    {
      "inputs": [
        {
          "internalType": "address",
          "name": "router",
          "type": "address"
        },
        {
          "internalType": "uint256",
          "name": "amountIn",
          "type": "uint256"
        },
        {
          "internalType": "uint256",
          "name": "amountOutMin",
          "type": "uint256"
        },
        {
          "internalType": "address[]",
          "name": "path",
          "type": "address[]"
        },
        {
          "internalType": "address",
          "name": "to",
          "type": "address"
        },
        {
          "internalType": "uint256",
          "name": "deadline",
          "type": "uint256"
        }
      ],
      "name": "swapExactTokensForTokens",
      "outputs": [],
      "stateMutability": "nonpayable",
      "type": "function"
    },
    {
      "inputs": [
        {
          "internalType": "address",
          "name": "router",
          "type": "address"
        },
        {
          "internalType": "uint256",
          "name": "amountOut",
          "type": "uint256"
        },
        {
          "internalType": "uint256",
          "name": "amountInMax",
          "type": "uint256"
        },
        {
          "internalType": "address[]",
          "name": "path",
          "type": "address[]"
        },
        {
          "internalType": "address",
          "name": "to",
          "type": "address"
        },
        {
          "internalType": "uint256",
          "name": "deadline",
          "type": "uint256"
        }
      ],
      "name": "swapTokensForExactTokens",
      "outputs": [],
      "stateMutability": "nonpayable",
      "type": "function"
    },
    {
      "inputs": [
        {
          "internalType": "address",
          "name": "router",
          "type": "address"
        },
        {
          "internalType": "uint256",
          "name": "amountOutMin",
          "type": "uint256"
        },
        {
          "internalType": "address[]",
          "name": "path",
          "type": "address[]"
        },
        {
          "internalType": "address",
          "name": "to",
          "type": "address"
        },
        {
          "internalType": "uint256",
          "name": "deadline",
          "type": "uint256"
        }
      ],
      "name": "swapExactETHForTokens",
      "outputs": [],
      "stateMutability": "payable",
      "type": "function"
    },
    {
      "inputs": [
        {
          "internalType": "address",
          "name": "router",
          "type": "address"
        },
        {
          "internalType": "uint256",
          "name": "amountOut",
          "type": "uint256"
        },
        {
          "internalType": "uint256",
          "name": "amountInMax",
          "type": "uint256"
        },
        {
          "internalType": "address[]",
          "name": "path",
          "type": "address[]"
        },
        {
          "internalType": "address",
          "name": "to",
          "type": "address"
        },
        {
          "internalType": "uint256",
          "name": "deadline",
          "type": "uint256"
        }
      ],
      "name": "swapTokensForExactETH",
      "outputs": [],
      "stateMutability": "nonpayable",
      "type": "function"
    },
    {
      "inputs": [
        {
          "internalType": "address",
          "name": "router",
          "type": "address"
        },
        {
          "internalType": "uint256",
          "name": "amountIn",
          "type": "uint256"
        },
        {
          "internalType": "uint256",
          "name": "amountOutMin",
          "type": "uint256"
        },
        {
          "internalType": "address[]",
          "name": "path",
          "type": "address[]"
        },
        {
          "internalType": "address",
          "name": "to",
          "type": "address"
        },
        {
          "internalType": "uint256",
          "name": "deadline",
          "type": "uint256"
        }
      ],
      "name": "swapExactTokensForETH",
      "outputs": [],
      "stateMutability": "nonpayable",
      "type": "function"
    },
    {
      "inputs": [
        {
          "internalType": "address",
          "name": "router",
          "type": "address"
        },
        {
          "internalType": "uint256",
          "name": "amountOut",
          "type": "uint256"
        },
        {
          "internalType": "address[]",
          "name": "path",
          "type": "address[]"
        },
        {
          "internalType": "address",
          "name": "to",
          "type": "address"
        },
        {
          "internalType": "uint256",
          "name": "deadline",
          "type": "uint256"
        }
      ],
      "name": "swapETHForExactTokens",
      "outputs": [],
      "stateMutability": "payable",
      "type": "function"
    }
  ],
  "bytecode": "0x608060405234801561001057600080fd5b50610d17806100206000396000f3fe60806040526004361061005c5760e060020a600035046322b584108114610068578063375734d9146101125780639c91fcb5146101ba578063b05f579e14610262578063fa3219d5146102f6578063fde1adda1461039e57610063565b3661006357005b600080fd5b34801561007457600080fd5b50610110600480360360c081101561008b57600080fd5b600160a060020a0382351691602081013591604082013591908101906080810160608201356401000000008111156100c257600080fd5b8201836020820111156100d457600080fd5b803590602001918460208302840111640100000000831117156100f657600080fd5b9193509150600160a060020a038135169060200135610432565b005b34801561011e57600080fd5b50610110600480360360c081101561013557600080fd5b600160a060020a03823516916020810135916040820135919081019060808101606082013564010000000081111561016c57600080fd5b82018360208201111561017e57600080fd5b803590602001918460208302840111640100000000831117156101a057600080fd5b9193509150600160a060020a0381351690602001356106b0565b3480156101c657600080fd5b50610110600480360360c08110156101dd57600080fd5b600160a060020a03823516916020810135916040820135919081019060808101606082013564010000000081111561021457600080fd5b82018360208201111561022657600080fd5b8035906020019184602083028401116401000000008311171561024857600080fd5b9193509150600160a060020a03813516906020013561079c565b610110600480360360a081101561027857600080fd5b600160a060020a03823516916020810135918101906060810160408201356401000000008111156102a857600080fd5b8201836020820111156102ba57600080fd5b803590602001918460208302840111640100000000831117156102dc57600080fd5b9193509150600160a060020a038135169060200135610888565b34801561030257600080fd5b50610110600480360360c081101561031957600080fd5b600160a060020a03823516916020810135916040820135919081019060808101606082013564010000000081111561035057600080fd5b82018360208201111561036257600080fd5b8035906020019184602083028401116401000000008311171561038457600080fd5b9193509150600160a060020a038135169060200135610afd565b610110600480360360a08110156103b457600080fd5b600160a060020a03823516916020810135918101906060810160408201356401000000008111156103e457600080fd5b8201836020820111156103f657600080fd5b8035906020019184602083028401116401000000008311171561041857600080fd5b9193509150600160a060020a038135169060200135610be9565b6000606088600160a060020a0316638803dbee60e060020a02898989898989604051602401808781526020018681526020018060200184600160a060020a0316600160a060020a031681526020018381526020018281038252868682818152602001925060200280828437600081840152601f19601f82011690508083019250505097505050505050505060405160208183030381529060405290600160e060020a031916602082018051600160e060020a0383818316178352505050506040518082805190602001908083835b6020831061051f5780518252601f199092019160209182019101610500565b6001836020036101000a038019825116818451168082178552505050505050905001915050600060405180830381855af49150503d806000811461057f576040519150601f19603f3d011682016040523d82523d6000602084013e610584565b606091505b50915091508161059057fe5b7f4cc17991e3610e3400e74a8306aa421daaee1e3446fa22b490604610999e10b38180602001905160208110156105c657600080fd5b81019080805160405193929190846401000000008211156105e657600080fd5b9083019060208201858111156105fb57600080fd5b825186602082028301116401000000008211171561061857600080fd5b82525081516020918201928201910280838360005b8381101561064557818101518382015260200161062d565b505050509050016040525050506040518080602001828103825283818151815260200191508051906020019060200280838360005b8381101561069257818101518382015260200161067a565b505050509050019250505060405180910390a1505050505050505050565b6000606088600160a060020a03166338ed173960e060020a02898989898989604051602401808781526020018681526020018060200184600160a060020a0316600160a060020a031681526020018381526020018281038252868682818152602001925060200280828437600081840152601f19601f82011690508083019250505097505050505050505060405160208183030381529060405290600160e060020a031916602082018051600160e060020a0383818316178352505050506040518082805190602001908083836020831061051f5780518252601f199092019160209182019101610500565b6000606088600160a060020a03166318cbafe560e060020a02898989898989604051602401808781526020018681526020018060200184600160a060020a0316600160a060020a031681526020018381526020018281038252868682818152602001925060200280828437600081840152601f19601f82011690508083019250505097505050505050505060405160208183030381529060405290600160e060020a031916602082018051600160e060020a0383818316178352505050506040518082805190602001908083836020831061051f5780518252601f199092019160209182019101610500565b6000606087600160a060020a031663fb3bdb4160e060020a028888888888604051602401808681526020018060200184600160a060020a0316600160a060020a031681526020018381526020018281038252868682818152602001925060200280828437600081840152601f19601f820116905080830192505050965050505050505060405160208183030381529060405290600160e060020a031916602082018051600160e060020a0383818316178352505050506040518082805190602001908083835b6020831061096d5780518252601f19909201916020918201910161094e565b6001836020036101000a038019825116818451168082178552505050505050905001915050600060405180830381855af49150503d80600081146109cd576040519150601f19603f3d011682016040523d82523d6000602084013e6109d2565b606091505b5091509150816109de57fe5b7f4cc17991e3610e3400e74a8306aa421daaee1e3446fa22b490604610999e10b3818060200190516020811015610a1457600080fd5b8101908080516040519392919084640100000000821115610a3457600080fd5b908301906020820185811115610a4957600080fd5b8251866020820283011164010000000082111715610a6657600080fd5b82525081516020918201928201910280838360005b83811015610a93578181015183820152602001610a7b565b505050509050016040525050506040518080602001828103825283818151815260200191508051906020019060200280838360005b83811015610ae0578181015183820152602001610ac8565b505050509050019250505060405180910390a15050505050505050565b6000606088600160a060020a0316634a25d94a60e060020a02898989898989604051602401808781526020018681526020018060200184600160a060020a0316600160a060020a031681526020018381526020018281038252868682818152602001925060200280828437600081840152601f19601f82011690508083019250505097505050505050505060405160208183030381529060405290600160e060020a031916602082018051600160e060020a0383818316178352505050506040518082805190602001908083836020831061051f5780518252601f199092019160209182019101610500565b6000606087600160a060020a0316637ff36ab560e060020a028888888888604051602401808681526020018060200184600160a060020a0316600160a060020a03168152602001838152602001828103825286868281815260200192506020028082843760008382015260408051601f909201601f19908116909401828103909401825292835260208082018051600160e060020a03167fffffffff00000000000000000000000000000000000000000000000000000000909d169c909c178c5292518151919b909a508a99509750955085945087935086925050831061096d5780518252601f19909201916020918201910161094e56fea2646970667358221220f548320cbe9741ca8c145137f42082014706858698681b986d2c8c50071d0b7264736f6c63430006060033",
  "immutableReferences": {},
  "source": "pragma solidity =0.6.6;\r\n\r\nimport \"../interfaces/IClassySwapRouter.sol\";\r\n\r\ncontract RouterEventEmitter {\r\n    event Amounts(uint256[] amounts);\r\n\r\n    receive() external payable {}\r\n\r\n    function swapExactTokensForTokens(\r\n        address router,\r\n        uint256 amountIn,\r\n        uint256 amountOutMin,\r\n        address[] calldata path,\r\n        address to,\r\n        uint256 deadline\r\n    ) external {\r\n        (bool success, bytes memory returnData) = router.delegatecall(\r\n            abi.encodeWithSelector(\r\n                IClassySwapRouter(router).swapExactTokensForTokens.selector,\r\n                amountIn,\r\n                amountOutMin,\r\n                path,\r\n                to,\r\n                deadline\r\n            )\r\n        );\r\n        assert(success);\r\n        emit Amounts(abi.decode(returnData, (uint256[])));\r\n    }\r\n\r\n    function swapTokensForExactTokens(\r\n        address router,\r\n        uint256 amountOut,\r\n        uint256 amountInMax,\r\n        address[] calldata path,\r\n        address to,\r\n        uint256 deadline\r\n    ) external {\r\n        (bool success, bytes memory returnData) = router.delegatecall(\r\n            abi.encodeWithSelector(\r\n                IClassySwapRouter(router).swapTokensForExactTokens.selector,\r\n                amountOut,\r\n                amountInMax,\r\n                path,\r\n                to,\r\n                deadline\r\n            )\r\n        );\r\n        assert(success);\r\n        emit Amounts(abi.decode(returnData, (uint256[])));\r\n    }\r\n\r\n    function swapExactETHForTokens(\r\n        address router,\r\n        uint256 amountOutMin,\r\n        address[] calldata path,\r\n        address to,\r\n        uint256 deadline\r\n    ) external payable {\r\n        (bool success, bytes memory returnData) = router.delegatecall(\r\n            abi.encodeWithSelector(\r\n                IClassySwapRouter(router).swapExactETHForTokens.selector,\r\n                amountOutMin,\r\n                path,\r\n                to,\r\n                deadline\r\n            )\r\n        );\r\n        assert(success);\r\n        emit Amounts(abi.decode(returnData, (uint256[])));\r\n    }\r\n\r\n    function swapTokensForExactETH(\r\n        address router,\r\n        uint256 amountOut,\r\n        uint256 amountInMax,\r\n        address[] calldata path,\r\n        address to,\r\n        uint256 deadline\r\n    ) external {\r\n        (bool success, bytes memory returnData) = router.delegatecall(\r\n            abi.encodeWithSelector(\r\n                IClassySwapRouter(router).swapTokensForExactETH.selector,\r\n                amountOut,\r\n                amountInMax,\r\n                path,\r\n                to,\r\n                deadline\r\n            )\r\n        );\r\n        assert(success);\r\n        emit Amounts(abi.decode(returnData, (uint256[])));\r\n    }\r\n\r\n    function swapExactTokensForETH(\r\n        address router,\r\n        uint256 amountIn,\r\n        uint256 amountOutMin,\r\n        address[] calldata path,\r\n        address to,\r\n        uint256 deadline\r\n    ) external {\r\n        (bool success, bytes memory returnData) = router.delegatecall(\r\n            abi.encodeWithSelector(\r\n                IClassySwapRouter(router).swapExactTokensForETH.selector,\r\n                amountIn,\r\n                amountOutMin,\r\n                path,\r\n                to,\r\n                deadline\r\n            )\r\n        );\r\n        assert(success);\r\n        emit Amounts(abi.decode(returnData, (uint256[])));\r\n    }\r\n\r\n    function swapETHForExactTokens(\r\n        address router,\r\n        uint256 amountOut,\r\n        address[] calldata path,\r\n        address to,\r\n        uint256 deadline\r\n    ) external payable {\r\n        (bool success, bytes memory returnData) = router.delegatecall(\r\n            abi.encodeWithSelector(\r\n                IClassySwapRouter(router).swapETHForExactTokens.selector,\r\n                amountOut,\r\n                path,\r\n                to,\r\n                deadline\r\n            )\r\n        );\r\n        assert(success);\r\n        emit Amounts(abi.decode(returnData, (uint256[])));\r\n    }\r\n}\r\n",
  "sourcePath": "C:/dev/defi/classy-contract/classy-periphery/contracts/test/RouterEventEmitter.sol",
  "compiler": {
    "name": "solc",
    "version": "0.6.6+commit.6c089d02.Emscripten.clang"
  },
  "schemaVersion": "3.2.3",
  "updatedAt": "2021-08-05T10:56:48.254Z",
  "devdoc": {
    "methods": {}
  },
  "userdoc": {
    "methods": {}
  }
}